:0420000082EF19F062
:08200800046ED8CF05F0E0CF13
:1020100006F00001E9CF0CF0EACF07F0E1CF08F0BD
:10202000E2CF09F0D9CF0AF0DACF0BF0F3CF12F0FC
:10203000F4CF13F0FACF14F0F5CF15F0F6CF16F079
:10204000F7CF17F000C00EF001C00FF002C010F083
:1020500003C011F0F2A830EF10F0F2B218EF18F050
:10206000A0AA36EF10F0A1BACBEF17F00EC000F027
:102070000FC001F010C002F011C003F00CC0E9FF66
:1020800007C0EAFF078E08C0E1FF09C0E2FF0AC0EF
:10209000D9FF0BC0DAFF12C0F3FF13C0F4FF14C066
:1020A000FAFF15C0F5FF16C0F6FF17C0F7FF045082
:1020B00006C0E0FF05C0D8FF1000F76ACA0FF66E31
:1020C000200EF7220900F5501200000302FFFFFF67
:1020D000FFFFFFFFFFFFFFFFFFFFF76AEA0FF66E4C
:1020E000200EF7220900F550120000FF02FFFFFF4B
:1020F000FFFFFFFFFFFFFFFFFFFFF76A0A0FF66E0C
:10210000210EF7220900F550120040000B0040009C
:1021100000000000000000000000000000000000BF
:1021200000000000000000000000F76A3A0FF66EA1
:10213000210EF7220900F550120040000000400077
:10214000000000000000000000000000000000008F
:1021500000000000000000000000F76A6A0FF66E41
:10216000210EF7220900F550120009024300020176
:102170000080320904000001020201000524001061
:1021800001042402020524060001052401000107C0
:102190000581030B00FA09040100020A0000000790
:1021A0000502024000010705820240000100F76AB3
:1021B000BE0FF66E210EF7220900F5501200020044
:1021C000F76AD00FF66E210EF7220900F5501200C3
:1021D00012171B20FFFFFFFFF76AE80FF66E210EB4
:1021E000F7220900F5501200120110010200004010
:1021F000D8040200000101020001F76A0A0FF66E1E
:10220000220EF7220900F550120004030904080306
:1022100043004300530020034300430053002000C9
:10222000550053004200200074006F00200055004C
:102230004100520054006D92699468A402D06894E1
:10224000FCD76898D7EF17F0400E0401016F040E19
:102250000001896F180E89C003F4E8CF02F4880EDC
:102260000401006F046B040E076F580E066F000127
:10227000120070A002D0E8DF7090689ADEEF17F0CD
:102280006A6A6892E3EF17F0959194BF9581949FE5
:102290009451100803E2000E016E16D095A10BD0E8
:1022A000036A94510ADFFF0802E1000E01D0010E1B
:1022B000016E0AD009D0036A94510FDFFF0802E1D2
:1022C000000E01D0010E016E120099519B03F3CF55
:1022D00001F0F4CF00F09C03F35000269A519B03C9
:1022E000F3500020026E1200036A9351700FE96EE2
:1022F0000F0E0320EA6EEF6A93C094F0C5DF01521F
:1023000022E09A6B93C099F09C6B080E9B6FDDDF07
:1023100001C0E9FF040E0224EA6EEF6A9A6B93C0D3
:1023200099F09C6B080E9B6FD0DF02C095F001C046
:1023300094F0040E9427000E952394C0E9FF040E38
:102340009525EA6EEF6A1200010E926F92510F0806
:1023500005E392C093F0C8DF922BF8D712008C6B84
:102360008B6B250E8A6F800E896F89C02AF08AC018
:102370002BF02C6A2D6A896B89C02EF0896B89C07D
:102380002FF0080E896F89C030F07E6B7D91326A24
:10239000316A246A7A917F6B1200276A266A886BF9
:1023A000885101080AE3036A8851280FE96E000E7C
:1023B0000320EA6EEF6A882BF3D7D1DF1B6A010E88
:1023C0001C6E1A6A1200689612006B6A696A6A6A61
:1023D000686A6E6A706AB8DFE0DF160E706E68A613
:1023E00002D0F1DFFCD79F0E6B6E3D0E696E6D98CB
:1023F0002BDF030E1F6EE8EF17F0698469986D827A
:10240000EDEF17F0689CF2EF17F08DC020F012008E
:10241000206812008B6B265027102DE08B513F084F
:102420002AE31D5005E0020A09E0010A0DE011D07F
:1024300023C003F0225091DE8C6F0BD023C003F039
:102440002250DBDE8C6F05D023C003F02250C4DEA7
:102450008C6F222AD8B4232A2650D8B42706260601
:102460008B518B2B580FE96E040EEA6ED8B0EA2A16
:102470008CC0EFFFD0D72650271004E18B514008C5
:1024800001E01A6A8BC08DF0C0DF12008A6B236AEC
:10249000226A1D6A04011B51010A000107E0030AB8
:1024A0000BE0010A0DE0220A25E03DD0276A120E5A
:1024B000266E030E1D6E39D0276A430E266E35D068
:1024C000020E1D6E8A6B04011A5100018A5D09E239
:1024D00023C003F0225091DE2226000E23228A2BF5
:1024E000F2D723C003F0225088DE036A266E03C0B1
:1024F00027F01BD0036A04011A51000161DE036A50
:10250000226E03C023F0223C02D023520AE023C0F3
:1025100003F0225022DE036A266E03C027F005D0A6
:1025200002D076DF11D074DF0FD004011F5308E111
:10253000275203E126501E5D03E2276A1EC426F0DF
:10254000010E1A6E000166DFCCEF13F08A5304E12E
:10255000040E1F6EF9DECBD0050E1F6E040E8D6FBC
:10256000980E8C6F010E8B6F8B510F08D8A0BFD0C7
:102570008BC093F0B9DE8E6B036A8B51AEDDFF0822
:102580005BE0040E8E6FD8908B35036ACEDD0900B8
:10259000F5CF03F08F6F03C090F09A6B8BC099F06A
:1025A0009C6B080E9B6F91DE01C092F0010E01241E
:1025B000016E000E0220036E01C0E9FF040E032429
:1025C000EA6E8FC0EFFF9A6B8BC099F09C6B080E80
:1025D0009B6F7BDE01C092F0020E0124016E000EA3
:1025E0000220036E01C0E9FF040E0324EA6E8DC0D1
:1025F000ECFFED528CC0EFFFD8908B35036A95DD70
:102600000900F5CF03F08C2703508D23880E916FBE
:1026100090A101D0918190A301D091839A6B8BC03E
:1026200099F09C6B080E9B6F50DE01C0E9FF040E11
:102630000224EA6E91C0EFFF036A8B513EDDFF0872
:1026400040E08E839A6B8BC099F09C6B080E9B6F59
:102650003CDE02C093F001C092F0040E9227000EFF
:102660009323020E9225016E000E9321036E01C08A
:10267000E9FF040E0324EA6E8DC0ECFFED528CC01E
:10268000EFFFD8908B35036A38DD0900F5CF03F0F2
:102690008C2703508D239A6B8BC099F09C6B080E8E
:1026A0009B6F13DE02C093F001C092F0040E9227DC
:1026B000000E932392C0E9FF040E9325EA6E400EAC
:1026C000EF6E8E51060802E10E0E8E6F036A8B517B
:1026D000F4DC010801E08E89036A8B51700FE96E0A
:1026E0000F0E0320EA6E8EC0EFFF8B2B3DD7C6EF97
:1026F00013F004011951000A00010DE0010A14E071
:10270000020A1FE0060A29E0030A2EE00E0A2EE064
:10271000010A32E040D01CC058F40401596B020E8B
:1027200000018D6F72DE38D004011A2D07D0010E22
:102730001C1600018D6B69DE03D00401000168DE08
:102740002BD004011A2D06D01C8200018D6B5DDE9A
:1027500003D0040100015CDE1FD0020E1A6E1AC401
:1027600021F08D6B52DE18D091D616D01BC058F4D4
:10277000010E8D6F4ADE10D004011A51010809E3E1
:102780001AC41BF01AC48AF00001E0D68D6B3DDE3E
:102790000401000101D03CDE47EF15F01BC08AF0B8
:1027A00004011951000A000105E00A0A0BE0010AC0
:1027B00026E037D00401586B596B020E00018D6F73
:1027C00024DE30D08A5319E0010E8A5D036AEFDC03
:1027D000016E04011C5DD8A002D000010ED0036A76
:1027E0001C51280FE96E000E0320EA6EEFCF58F45B
:1027F000010E00018D6F09DE01D00ADE13D08A536D
:102800000EE0036A04011C51280FE96E000E03203C
:10281000EA6E1AC4EFFF00018D6BF7DD01D0F8DD21
:1028200001D0F6DD47EF15F08B918ABF8B818A9F2F
:102830008BA117D09A6B8AC099F09C6B080E9B6F86
:1028400044DD02C08DF001C08CF0040E8C27000E18
:102850008D238CC0E9FF040E8D25EA6E880EEF6E85
:102860000DD09A6B8AC099F09C6B080E9B6F2DDD82
:1028700001C0E9FF040E0224EA6EEF6A036A8A517E
:10288000700F016E0F0E032201C0E9FF03C0EAFFC3
:10289000EF90BFEF14F08B918ABF8B818A9F8BA141
:1028A00017D09A6B8AC099F09C6B080E9B6F0DDD58
:1028B00002C08DF001C08CF0040E8C27000E8D2319
:1028C0008CC0E9FF040E8D25EA6E840EEF6E0ED0EB
:1028D0009A6B8AC099F09C6B080E9B6FF6DC01C066
:1028E000E9FF040E0224EA6E840EEF6EC5EF14F0C9
:1028F0008B918ABF8B818A9F8BA117D09A6B8AC0DC
:1029000099F09C6B080E9B6FE0DC02C08EF001C05A
:102910008DF0040E8D27000E8E238DC0E9FF040E6E
:102920008E25EA6EEFCF8CF00ED09A6B8AC099F0AC
:102930009C6B080E9B6FC9DC01C0E9FF040E0224EA
:10294000EA6EEFCF8CF08CAF02D08CB502D0000EC7
:1029500001D0010E016ECFEF14F01CC494F094DC92
:10296000015228E004011951010A000105E0020AA0
:1029700009E0030A0DE01DD01CC48AF055D78D6B09
:1029800044DD18D01CC48AF086D78D6B3EDD12D092
:102990000401586B596B1CC48AF00001A9D701527D
:1029A00004E0010E0401586F0001020E8D6F2DDD51
:1029B00001D02EDD47EF15F0FE0E206E120004014F
:1029C0001C2D01D002D01C5348E11951000A00010E
:1029D0000BE0010A0DE0210A1CE0010A1FE0030AD6
:1029E0002EE0010A31E037D0010E7F6FE5DF34D0F1
:1029F000040EEA6E580EE96EE26A330EE16E080EBE
:102A0000016EE6CFEEFF012EFCD71EC48DF0FDDC7B
:102A100023D0020E7F6F7D81CFDF1ED0040EEA6EC1
:102A2000580EE96EE26A2A0EE16E070E016EE6CFDD
:102A3000EEFF012EFCD7070E8D6FE7DC0DD01AC418
:102A40007EF08D6BE2DC08D01AC432F01BC431F08A
:102A50008D6BDBDC01D0DCDC0401000147EF15F0FD
:102A60001A6A040118517F0B000A000107E0010AED
:102A700007E0030A07E0230A07E008D03AD607D0A8
:102A80008DD605D06AD703D09AD701D0C1DC81EFAB
:102A900017F09A6B8BC099F09C6B080E9B6F15DC3E
:102AA00001C0E9FF040E0224EA6EEFCF8DF08C51D5
:102AB000020806E18DAD02D08C6B02D0010E8C6F46
:102AC0008C5103081AE1840E8D6F9A6B8BC099F0BC
:102AD0009C6B080E9B6F65EC11F002C091F001C079
:102AE00090F0040E9027000E912390C0E9FF040E91
:102AF0009125EA6E840EEF6E07D08C2D03D0C80EA0
:102B00008D6F02D0880E8D6FD8908B35036A95EC4F
:102B100010F00900F5CF03F08E6F03C08FF09A6BB1
:102B20008BC099F09C6B080E9B6F65EC11F001C097
:102B300090F0010E0124016E000E0220036E01C010
:102B4000E9FF040E0324EA6E8EC0EFFF8FA101D0CF
:102B50008D818FA301D08D839A6B8BC099F09C6B74
:102B6000080E9B6F65EC11F001C0E9FF040E022412
:102B7000EA6E8DC0EFFF1200036A9851700FE96E84
:102B80000F0E0320EA6EEF5219E09A6B98C099F08D
:102B90009C6B080E9B6F65EC11F002C09AF001C0AF
:102BA00099F0040E9927000E9A2399C0E9FF040EAC
:102BB0009A25EA6EEFCF9BF09BAF02D0000E01D0BA
:102BC000010E016E120093C098F0D6DF0152D8B406
:102BD0008FD09A6B93C099F09C6B080E9B6F65EC3D
:102BE00011F002C099F001C098F0040E9827000E71
:102BF0009923010E9825016E000E9921036E01C0E4
:102C0000E9FF040E0324EA6E94C0EFFF9651020818
:102C10001EE19A6B93C099F09C6B080E9B6F65EC5C
:102C200011F002C099F001C098F0040E9827000E30
:102C3000992398C0E9FF040E9925EA6EEFCF97F02B
:102C400097AD02D0966B02D0010E966F18D09651B8
:102C5000040815E19A6B93C099F09C6B080E9B6F6A
:102C600065EC11F001C0E9FF040E0224EA6EEFCF1B
:102C700097F097AD03D0010E966F01D0966B962D0D
:102C800003D0480E976F02D0080E976F9A6B93C0CF
:102C900099F09C6B080E9B6F65EC11F002C099F0E7
:102CA00001C098F0040E9827000E992398C0E9FF00
:102CB000040E9925EA6E97C0EFFF9A6B93C099F0C6
:102CC0009C6B080E9B6F65EC11F002C099F001C07F
:102CD00098F0040E9827000E992398C0E9FF040E7F
:102CE0009925EA6EEF508009EF6E010E016E02D059
:102CF000000E016E12007F51010A03E0030A13E087
:102D000024D0EA6A330EE96E040EE26E180EE16E0C
:102D1000080E016EE6CFEEFF012EFCD78D6B05ECA1
:102D200012F07F6B13D0EA6A2A0EE96E040EE26E8F
:102D3000180EE16E070E016EE6CFEEFF012EFCD7F6
:102D40007F6B8D6B05EC12F001D07F6BDCEF16F022
:102D50009A6B8BC099F09C6B080E9B6F65EC11F021
:102D600002C08DF001C08CF0010E0124016E000E36
:102D70000220036E01C0E9FF040E0324EA6E036A19
:102D8000EFCF01F003C002F0D2EF16F07A91020EFD
:102D90008B6F8C6F7EDED7EF16F07A817C6B020E24
:102DA0008B6FD6D701C07BF07B5301E1EFD7E1EF0A
:102DB00016F08A5302E19FD704D08A51020801E13C
:102DC000ECD712008BC06EFF8B5303E0040E1F6E16
:102DD00002D0020E1F6EF2EF16F01B6A1A6A21C0B3
:102DE0008BF0F0D760EF17F08BC098F0C5DE015282
:102DF00043E09A6B8BC099F09C6B080E9B6F65EC5F
:102E000011F002C094F001C093F0040E9327000E5D
:102E10009423020E9325016E000E9421036E01C0CF
:102E2000E9FF040E0324EA6EECCF92F0ED52EFCFEF
:102E300091F092C0EAFF91C0E9FF8DC0E2FF8CC023
:102E4000E1FF8FC002F08EC001F0015202E0022AC1
:102E500002D0025206E0E6CFEEFF012EFCD7022E92
:102E6000FAD78BC093F08FC095F08EC094F090C0CD
:102E700096F0A9DE015002D0000E016E4DEF17F062
:102E800024520EE0020E8B6F8D6B3B0E8C6F8F6B9E
:102E900024C08EF0020E906FA7D7015201E0246A81
:102EA00053EF17F0EDD765EF17F08A530AE11A2CAC
:102EB00003D00AEC12F004D01A500208D8B48DD70F
:102EC00004D08A51020801E1EDD712001E30886F4C
:102ED000883388331F0E88171E5241E104010051C8
:102EE0003C0B0001896F430E04010017000189515A
:102EF00034081EE104010451800B01E0046B000161
:102F0000AFD56D98203C05D08B6B030E8C6FC1DD67
:102F10000ED08B6B020E8C6FBCDD2050FE0807E0DC
:102F2000936B956B20C094F0040E966F4CDE16D018
:102F30008951040813E18A6B3CDF8B6B020E8C6FA6
:102F4000A8DD2050FE080AE0203C01D007D0936B9A
:102F5000956B20C094F0010E966F35DE1AD01E508E
:102F600004080EE120688A6BA0DF203C01D007D066
:102F7000936B956B20C094F0020E966F24DE09D0FF
:102F80001EB404D088C08AF014DF03D088C08AF051
:102F90008CDFFCEF17F0A19A1F52D8B433D06852DF
:102FA000D8B430D068A403D069B41BEF11F06DB26F
:102FB00029D068AA03D069BA39EF11F068A203D00A
:102FC00069B240EF11F068A003D069B0E5EF11F0ED
:102FD00068A803D069B8FDEF11F068AC03D069BCF4
:102FE00002EF12F0876B68A608D069A606D06CCFF6
:102FF0001EF0E3EC11F06AD701D004D08751872B83
:103000000308F1E236EF10F0EA6A870EE96EEF503E
:103010000EE00F0E016E006A002EFED7012EFBD7C8
:103020008F0E006E002EFED70000EF2EF2D712009A
:10303000C80E876FE9DF812B8151040801E1816BA4
:10304000F29236EF10F06D926D6A696A080E6F6E3B
:1030500094503009946E1F6A196AF2BE198EF29E5E
:10306000CDEC11F019BEF28E37EF18F0ECD763EF0C
:1030700018F0196AF2BE198EF29ECDEC11F019BE4D
:10308000F28E6D926D6A6D8C00D000D000006D9C48
:10309000140E6F6E696A6D86010E1F6E53EF18F085
:1030A0006DB601D0E6D71F2C0BD06DBA09D0686A77
:1030B000696AA08AC00EF212110E696E020E1F6EAE
:1030C00064EF18F0D3D7ECD71F500208FCE170EF83
:1030D00018F01B5202E10400FCD771EF18F0F2D790
:1030E000F8D78EEF19F0936A8A6AA6EF19F0936AFF
:1030F000010E8A6E196AF2BE198EF29EFA0E876F61
:1031000083DF19BEF28E936A020E8A6E196AF2BECE
:10311000198EF29EFA0E876F77DF19BEF28E936AD0
:10312000040E8A6E196AF2BE198EF29EFA0E876F2D
:103130006BDF19BEF28E936A080E8A6E196AF2BEB0
:10314000198EF29EFA0E876F5FDF19BEF28E936AB8
:10315000100E8A6E196AF2BE198EF29EFA0E876FF1
:1031600053DF19BEF28E936A200E8A6E196AF2BE80
:10317000198EF29EFA0E876F47DF19BEF28E936AA0
:10318000400E8A6E196AF2BE198EF29EFA0E876F91
:103190003BDF19BEF28E936A800E8A6E196AF2BE08
:1031A000198EF29EFA0E876F2FDF19BEF28E196A02
:1031B000F2BE198EF29EF28219BEF28EAAEF19F0BB
:1031C000936A800E8A6E196AF2BE198EF29EFA0E0A
:1031D000876F1ADF19BEF28E936A400E8A6E196AE3
:1031E000F2BE198EF29EFA0E876F0EDF19BEF28EB6
:1031F000936A200E8A6E196AF2BE198EF29EFA0E3A
:10320000876F02DF19BEF28E936A100E8A6E196AFA
:10321000F2BE198EF29EFA0E876FF6DE19BEF28E9E
:10322000936A080E8A6E196AF2BE198EF29EFA0E21
:10323000876FEADE19BEF28E936A040E8A6E196AEF
:10324000F2BE198EF29EFA0E876FDEDE19BEF28E86
:10325000936A020E8A6E196AF2BE198EF29EFA0EF7
:10326000876FD2DE19BEF28E936A010E8A6E196ADA
:10327000F2BE198EF29EFA0E876FC6DE19BEF28E6E
:10328000196AF2BE198EF29EF28219BEF28EAFEF6B
:1032900019F0936A180E8A6E196AF2BE198EF29EA0
:1032A000FA0E876FB1DE19BEF28E936A240E8A6E13
:1032B000196AF2BE198EF29EFA0E876FA5DE19BE4C
:1032C000F28E936A420E8A6E196AF2BE198EF29ECF
:1032D000FA0E876F99DE19BEF28E936A810E8A6E9E
:1032E000196AF2BE198EF29EFA0E876F8DDE19BE34
:1032F000F28E196AF2BE198EF29EF28219BEF28E19
:10330000B4EF19F0F86AD09E078E806B816BC150C4
:10331000C00B0F09C16E070EB46EE1D6196AF2BE7A
:10332000198EF29EC80E876F6FDE19BEF28EFF0EE9
:10333000926EC00EF212F288196AF2BE198EF29ED7
:10334000F28219BEF28E815302E1CDD60FD0812DCB
:1033500002D0CDD60BD08151020802E131D706D080
:103360008151030802E195D701D0816BE5D70300B5
:020000040030CA
:0E00000024CE3E1E0085A1000FC00FE00F4071
:00000001FF
;PIC18F4550
;CRC=6D31  CREATED="19-May-22 15:30"
