:04200000C4EF20F019
:08200800046ED8CF05F0E0CF13
:1020100006F00001E9CF0CF0EACF07F0E1CF08F0BD
:10202000E2CF09F0D9CF0AF0DACF0BF0F3CF12F0FC
:10203000F4CF13F0FACF14F0F5CF15F0F6CF16F079
:10204000F7CF17F000C00EF001C00FF002C010F083
:1020500003C011F0A0AA30EF10F0A1BAC7EF17F03B
:102060000EC000F00FC001F010C002F011C003F06C
:102070000CC0E9FF07C0EAFF078E08C0E1FF09C0F6
:10208000E2FF0AC0D9FF0BC0DAFF12C0F3FF13C092
:10209000F4FF14C0FAFF15C0F5FF16C0F6FF17C015
:1020A000F7FF045006C0E0FF05C0D8FF1000F76A34
:1020B000BE0FF66E200EF7220900F5501200000345
:1020C00002FFFFFFFFFFFFFFFFFFFFFFFFFFF76ABA
:1020D000DE0FF66E200EF7220900F550120000FF09
:1020E00002FFFFFFFFFFFFFFFFFFFFFFFFFFF76A9A
:1020F000FE0FF66E200EF7220900F5501200400088
:102100000B00400000000000000000000000000084
:102110000000000000000000000000000000F76A5E
:102120002E0FF66E210EF7220900F5501200400026
:10213000000040000000000000000000000000005F
:102140000000000000000000000000000000F76A2E
:102150005E0FF66E210EF7220900F55012000902FB
:102160004300020100803209040000010202010064
:1021700005240010010424020205240600010524A0
:10218000010001070581030B00FA09040100020A9E
:10219000000000070502024000010705820240001E
:1021A0000100F76AB20FF66E210EF7220900F55012
:1021B00012000200F76AC40FF66E210EF722090022
:1021C000F550120012171B20FFFFFFFFF76ADC0F0C
:1021D000F66E210EF7220900F550120012011001CF
:1021E00002000040D8040200000101020001F76A69
:1021F000FE0FF66E210EF7220900F55012000403BF
:102200000904080343004300530020034300430034
:1022100053002000550053004200200074006F005E
:10222000200055004100520054006D92699468A44A
:1022300002D06894FCD76898D3EF17F0400E0401E1
:10224000016F040E0001D56F180ED5C003F4E8CF5E
:1022500002F4880E0401006F046B040E076F580E21
:10226000066F0001120070A002D0E8DF7090689A3B
:10227000DAEF17F06A6A6892DFEF17F0E191E0BFDA
:10228000E181E09FE051100803E2000E016E16D0DC
:10229000E1A10BD0036AE0510ADFFF0802E1000E62
:1022A00001D0010E016E0AD009D0036AE0510FDFA0
:1022B000FF0802E1000E01D0010E016E1200E5518F
:1022C000E703F3CF01F0F4CF00F0E803F35000266A
:1022D000E651E703F3500020026E1200036ADF515B
:1022E000700FE96E0F0E0320EA6EEF6ADFC0E0F0B8
:1022F000C5DF015222E0E66BDFC0E5F0E86B080EB7
:10230000E76FDDDF01C0E9FF040E0224EA6EEF6A29
:10231000E66BDFC0E5F0E86B080EE76FD0DF02C0C8
:10232000E1F001C0E0F0040EE027000EE123E0C080
:10233000E9FF040EE125EA6EEF6A1200010EDE6F7E
:10234000DE510F0805E3DEC0DFF0C8DFDE2BF8D773
:102350001200D86BD76B250ED66F800ED56FD5C007
:1023600028F0D6C029F02A6A2B6AD56BD5C02CF08C
:10237000D56BD5C02DF0080ED56FD5C02EF07D6B76
:102380007C91306A2F6A786B79917E6BD9EF11F06E
:10239000246A236AD46BD45101080AE3036AD45136
:1023A000260FE96E000E0320EA6EEF6AD42BF3D7F6
:1023B000D0D71A6A010E1B6E196AE9EF11F0689600
:1023C00012006B6A696A6A6A686A6E6A706AB6DF66
:1023D000DFD7160E706E68A602D0F1DFFCD79F0E15
:1023E0006B6E3D0E696E6D9829DF030E1E6EE4EF75
:1023F00017F0698469986D82E9EF17F0689CEEEF39
:1024000017F0D9C01FF012001F681200D76B2350BD
:1024100024102DE0D7513F082AE31C5005E0020AA2
:1024200009E0010A0DE011D022C003F021508FDE37
:10243000D86F0BD022C003F02150D9DED86F05D061
:1024400022C003F02150C2DED86F212AD8B4222A3C
:102450002350D8B424062306D751D72B580FE96E42
:10246000040EEA6ED8B0EA2AD8C0EFFFD0D72350C6
:10247000241004E1D751400801E0196AD7C0D9F00F
:10248000C0DF1200D66B226A216A1C6A04011B514C
:10249000010A000107E0030A0BE0010A0DE0220A2D
:1024A00025E03DD0246A120E236E030E1C6E39D037
:1024B000246A430E236E35D0020E1C6ED66B0401C7
:1024C0001A510001D65D09E222C003F021508FDECF
:1024D0002126000E2222D62BF2D722C003F0215053
:1024E00086DE036A236E03C024F01BD0036A040156
:1024F0001A5100015FDE036A216E03C022F0213C05
:1025000002D022520AE022C003F0215020DE036AEA
:10251000236E03C024F005D002D076DF11D074DF23
:102520000FD004011F5308E1245203E123501E5D24
:1025300003E2246A1EC423F0010E196E000166DF57
:10254000C8EF13F0D65304E1040E1E6EF7DECBD0B5
:10255000050E1E6E040ED96F980ED86F010ED76F40
:10256000D7510F08D8A0BFD0D7C0DFF0B7DEDA6BE5
:10257000036AD751ACDDFF085BE0040EDA6FD89038
:10258000D735036ACCDD0900F5CF03F0DB6F03C05C
:10259000DCF0E66BD7C0E5F0E86B080EE76F8FDE86
:1025A00001C0DEF0010E0124016E000E0220036E58
:1025B00001C0E9FF040E0324EA6EDBC0EFFFE66B07
:1025C000D7C0E5F0E86B080EE76F79DE01C0DEF0FA
:1025D000020E0124016E000E0220036E01C0E9FF0D
:1025E000040E0324EA6ED9C0ECFFED52D8C0EFFF11
:1025F000D890D735036A93DD0900F5CF03F0D827CB
:102600000350D923880EDD6FDCA101D0DD81DCA36E
:1026100001D0DD83E66BD7C0E5F0E86B080EE76F0D
:102620004EDE01C0E9FF040E0224EA6EDDC0EFFFBA
:10263000036AD7513CDDFF0840E0DA83E66BD7C080
:10264000E5F0E86B080EE76F3ADE02C0DFF001C08C
:10265000DEF0040EDE27000EDF23020EDE25016E03
:10266000000EDF21036E01C0E9FF040E0324EA6EB1
:10267000D9C0ECFFED52D8C0EFFFD890D735036A30
:1026800036DD0900F5CF03F0D8270350D923E66BD8
:10269000D7C0E5F0E86B080EE76F11DE02C0DFF08F
:1026A00001C0DEF0040EDE27000EDF23DEC0E9FFEE
:1026B000040EDF25EA6E400EEF6EDA51060802E1E5
:1026C0000E0EDA6F036AD751F2DC010801E0DA89F5
:1026D000036AD751700FE96E0F0E0320EA6EDAC05D
:1026E000EFFFD72B3DD7C2EF13F004011951000AB9
:1026F00000010DE0010A14E0020A1FE0060A29E0C9
:10270000030A2EE00E0A2EE0010A32E040D01BC080
:1027100058F40401596B020E0001D96F72DE38D0F3
:1027200004011A2D07D0010E1B160001D96B69DEBA
:1027300003D00401000168DE2BD004011A2D06D05D
:102740001B820001D96B5DDE03D0040100015CDE59
:102750001FD0020E196E1AC420F0D96B52DE18D0A9
:1027600091D616D01AC058F4010ED96F4ADE10D097
:1027700004011A51010809E31AC41AF01AC4D6F068
:102780000001E0D6D96B3DDE0401000101D03CDE42
:1027900043EF15F01AC0D6F004011951000A0001E8
:1027A00005E00A0A0BE0010A26E037D00401586B65
:1027B000596B020E0001D96F24DE30D0D65319E0D8
:1027C000010ED65D036AEDDC016E04011C5DD8A02C
:1027D00002D000010ED0036A1C51260FE96E000ED4
:1027E0000320EA6EEFCF58F4010E0001D96F09DE25
:1027F00001D00ADE13D0D6530EE0036A04011C5147
:10280000260FE96E000E0320EA6E1AC4EFFF0001E6
:10281000D96BF7DD01D0F8DD01D0F6DD43EF15F01F
:10282000D791D6BFD781D69FD7A117D0E66BD6C098
:10283000E5F0E86B080EE76F42DD02C0D9F001C099
:10284000D8F0040ED827000ED923D8C0E9FF040E13
:10285000D925EA6E880EEF6E0DD0E66BD6C0E5F096
:10286000E86B080EE76F2BDD01C0E9FF040E0224C0
:10287000EA6EEF6A036AD651700F016E0F0E0322E3
:1028800001C0E9FF03C0EAFFEF90BBEF14F0D7915E
:10289000D6BFD781D69FD7A117D0E66BD6C0E5F0BB
:1028A000E86B080EE76F0BDD02C0D9F001C0D8F06D
:1028B000040ED827000ED923D8C0E9FF040ED9256D
:1028C000EA6E840EEF6E0ED0E66BD6C0E5F0E86BD4
:1028D000080EE76FF4DC01C0E9FF040E0224EA6E83
:1028E000840EEF6EC1EF14F0D791D6BFD781D69F7B
:1028F000D7A117D0E66BD6C0E5F0E86B080EE76FFE
:10290000DEDC02C0DAF001C0D9F0040ED927000ED7
:10291000DA23D9C0E9FF040EDA25EA6EEFCFD8F04A
:102920000ED0E66BD6C0E5F0E86B080EE76FC7DCAB
:1029300001C0E9FF040E0224EA6EEFCFD8F0D8AF51
:1029400002D0D8B502D0000E01D0010E016ECBEF3F
:1029500014F01CC4E0F092DC015228E0040119518B
:10296000010A000105E0020A09E0030A0DE01DD09A
:102970001CC4D6F055D7D96B44DD18D01CC4D6F092
:1029800086D7D96B3EDD12D00401586B596B1CC43D
:10299000D6F00001A9D7015204E0010E0401586FDE
:1029A0000001020ED96F2DDD01D02EDD43EF15F0B1
:1029B000FE0E1F6E120004011C2D01D002D01C530C
:1029C00048E11951000A00010BE0010A0DE0210A5B
:1029D0001CE0010A1FE0030A2EE0010A31E037D0B3
:1029E000010E7E6FE5DF34D0040EEA6E580EE96EFC
:1029F000E26A310EE16E080E016EE6CFEEFF012EA7
:102A0000FCD71EC4D9F0FDDC23D0020E7E6F7C8182
:102A1000CFDF1ED0040EEA6E580EE96EE26A280E71
:102A2000E16E070E016EE6CFEEFF012EFCD7070E1A
:102A3000D96FE7DC0DD01AC47DF0D96BE2DC08D089
:102A40001AC430F01BC42FF0D96BDBDC01D0DCDC06
:102A50000401000143EF15F0196A040118517F0BBE
:102A6000000A000107E0010A07E0030A07E0230A61
:102A700007E008D03AD607D08DD605D06AD703D064
:102A80009AD701D0C1DC7DEF17F0E66BD7C0E5F037
:102A9000E86B080EE76F13DC01C0E9FF040E0224A7
:102AA000EA6EEFCFD9F0D851020806E1D9AD02D0D5
:102AB000D86B02D0010ED86FD85103081AE1840EEA
:102AC000D96FE66BD7C0E5F0E86B080EE76F5FECF7
:102AD00011F002C0DDF001C0DCF0040EDC27000EB6
:102AE000DD23DCC0E9FF040EDD25EA6E840EEF6E07
:102AF00007D0D82D03D0C80ED96F02D0880ED96F59
:102B0000D890D735036A8FEC10F00900F5CF03F0A9
:102B1000DA6F03C0DBF0E66BD7C0E5F0E86B080EB8
:102B2000E76F5FEC11F001C0DCF0010E0124016ED3
:102B3000000E0220036E01C0E9FF040E0324EA6EBA
:102B4000DAC0EFFFDBA101D0D981DBA301D0D983AB
:102B5000E66BD7C0E5F0E86B080EE76F5FEC11F0AD
:102B600001C0E9FF040E0224EA6ED9C0EFFF120093
:102B7000036AE451700FE96E0F0E0320EA6EEF5204
:102B800019E0E66BE4C0E5F0E86B080EE76F5FEC78
:102B900011F002C0E6F001C0E5F0040EE527000EDA
:102BA000E623E5C0E9FF040EE625EA6EEFCFE7F085
:102BB000E7AF02D0000E01D0010E016E1200DFC09F
:102BC000E4F0D6DF0152D8B48FD0E66BDFC0E5F079
:102BD000E86B080EE76F5FEC11F002C0E5F001C092
:102BE000E4F0040EE427000EE523010EE425016E57
:102BF000000EE521036E01C0E9FF040E0324EA6E16
:102C0000E0C0EFFFE25102081EE1E66BDFC0E5F035
:102C1000E86B080EE76F5FEC11F002C0E5F001C051
:102C2000E4F0040EE427000EE523E4C0E9FF040EFF
:102C3000E525EA6EEFCFE3F0E3AD02D0E26B02D020
:102C4000010EE26F18D0E251040815E1E66BDFC017
:102C5000E5F0E86B080EE76F5FEC11F001C0E9FFEB
:102C6000040E0224EA6EEFCFE3F0E3AD03D0010ED1
:102C7000E26F01D0E26BE22D03D0480EE36F02D089
:102C8000080EE36FE66BDFC0E5F0E86B080EE76F58
:102C90005FEC11F002C0E5F001C0E4F0040EE4279F
:102CA000000EE523E4C0E9FF040EE525EA6EE3C06B
:102CB000EFFFE66BDFC0E5F0E86B080EE76F5FEC57
:102CC00011F002C0E5F001C0E4F0040EE427000EAC
:102CD000E523E4C0E9FF040EE525EA6EEF50800924
:102CE000EF6E010E016E02D0000E016E12007E51D9
:102CF000010A03E0030A13E024D0EA6A310EE96E08
:102D0000040EE26E180EE16E080E016EE6CFEEFFC5
:102D1000012EFCD7D96B01EC12F07E6B13D0EA6A5E
:102D2000280EE96E040EE26E180EE16E070E016EBB
:102D3000E6CFEEFF012EFCD77E6BD96B01EC12F0D3
:102D400001D07E6BD8EF16F0E66BD7C0E5F0E86BEC
:102D5000080EE76F5FEC11F002C0D9F001C0D8F0A7
:102D6000010E0124016E000E0220036E01C0E9FF76
:102D7000040E0324EA6E036AEFCF01F003C002F0F1
:102D8000CEEF16F07991020ED76FD86F7EDED3EFBB
:102D900016F079817B6B020ED76FD6D701C07AF01F
:102DA0007A5301E1EFD7DDEF16F0D65302E19FD75A
:102DB00004D0D651020801E1ECD71200D7C06EFF53
:102DC000D75303E0040E1E6E02D0020E1E6EEEEF0D
:102DD00016F01A6A196A20C0D7F0F0D75CEF17F026
:102DE000D7C0E4F0C5DE015243E0E66BD7C0E5F0A2
:102DF000E86B080EE76F5FEC11F002C0E0F001C075
:102E0000DFF0040EDF27000EE023020EDF25016E47
:102E1000000EE021036E01C0E9FF040E0324EA6EF8
:102E2000ECCFDEF0ED52EFCFDDF0DEC0EAFFDDC02B
:102E3000E9FFD9C0E2FFD8C0E1FFDBC002F0DAC091
:102E400001F0015202E0022A02D0025206E0E6CF6F
:102E5000EEFF012EFCD7022EFAD7D7C0DFF0DBC081
:102E6000E1F0DAC0E0F0DCC0E2F0A9DE015002D00F
:102E7000000E016E49EF17F078530EE0020ED76F87
:102E8000D96B390ED86FDB6B78C0DAF0020EDC6FCD
:102E9000A7D7015201E0786B4FEF17F0EDD761EF44
:102EA00017F0D6530AE1192C03D006EC12F004D027
:102EB00019500208D8B48DD704D0D651020801E1C8
:102EC000EDD712001D30D46FD433D4331F0ED41776
:102ED0001D5241E1040100513C0B0001D56F430E2E
:102EE000040100170001D55134081EE1040104510A
:102EF000800B01E0046B0001AFD56D981F3C05D03D
:102F0000D76B030ED86FC1DD0ED0D76B020ED86F12
:102F1000BCDD1F50FE0807E0DF6BE16B1FC0E0F077
:102F2000040EE26F4CDE16D0D551040813E1D66BC7
:102F30003CDFD76B020ED86FA8DD1F50FE080AE0F9
:102F40001F3C01D007D0DF6BE16B1FC0E0F0010E2A
:102F5000E26F35DE1AD01D5004080EE11F68D66BF3
:102F6000A0DF1F3C01D007D0DF6BE16B1FC0E0F09A
:102F7000020EE26F24DE09D01DB404D0D4C0D6F016
:102F800014DF03D0D4C0D6F08CDFF8EF17F0A19A8D
:102F90001E52D8B433D06852D8B430D068A403D00D
:102FA00069B415EF11F06DB229D068AA03D069BADF
:102FB00033EF11F068A203D069B23AEF11F068A0C4
:102FC00003D069B0E1EF11F068A803D069B8F9EF58
:102FD00011F068AC03D069BCFEEF11F0D36B68A6AA
:102FE00008D069A606D06CCF1DF0DFEC11F06AD7CF
:102FF00001D004D0D351D32B0308F1E230EF10F00D
:10300000415445300D0A000052483A0054656D7035
:103010003A0041540D0A000041542B4349504D558C
:10302000583D310D0A0041542B43495053544152ED
:10303000543D302C22544350222C223138342E312E
:1030400030362E3135332E313439222C38300D0ABA
:10305000000041542B43495053454E443D302C31E0
:1030600030300D0A0000474554202F75706461749C
:10307000653F6170695F6B65793D344E5A575053B7
:1030800053443336535451485732266669656C644D
:10309000313D252E3166266669656C64323D252EEC
:1030A00031660A000C00EA6AAD0EE96EEF500EE0E0
:1030B0000F0E016E006A002EFED7012EFBD78F0E79
:1030C000006E002EFED70000EF2EF2D71200B4B132
:1030D00002D08C9801D08C889598B4B302D08C9A89
:1030E00001D08C8A959AB4B502D08C9C01D08C8C7E
:1030F000959CB4B702D08C9E01D08C8E959E00001A
:103100008C849594070E006E002EFED700D08C9410
:1031100095941200B56B9588000E83B8010EB51317
:10312000958A000E83BA010E006ED89000360050CA
:10313000B513958C000E83BC010E006E0036003670
:10314000FC0E00160050B513958E000E83BE010EC6
:10315000006E003600360036F80E00160050B5132B
:10316000B5C001F012009588958A958C958E8C8259
:10317000959200008C8495940000CCDF01C0B4F0DF
:103180008C94959400008C849594030E006E002E10
:10319000FED700D0BFDF01C0B3F08C949594959812
:1031A000959A959C959EB439006EF00E00160050CD
:1031B000B311016EE2EF18F09594959095928C9072
:1031C0009590D1D701C0B3F001BEFBD7B15302E156
:1031D0008C9001D08C80959000008C92959200008C
:1031E0008C949594B239B36F0F0EB317B3C0B4F08B
:1031F0006EDFB2510F0BB36FB46F69DF1200280E90
:10320000A06F0C0EA16F010EA26F060EA36F8C941F
:1032100095948C9095908C9295929598959A959C72
:10322000959E9594959095920F0EAD6F3CDF010E93
:103230009F6F9F51030808E3030EB46F48DF050E2C
:10324000AD6F31DF9F2BF5D7020EB46F40DF050E57
:10325000AD6F29DF9F6B9F5103080DE3036A9F51F8
:10326000A00FE96E000E0320EA6EEFCFB2F0B16B53
:10327000A3DF9F2BF0D7E7EF20F09284040E9F6F1F
:10328000FA0EAD6F10DF9F2FFBD7E9EF20F0AE2DC8
:1032900001D003D0400EAF6F01D0AF6B010EAD5D1A
:1032A000AF27AF518009B06FB16BB26F85DF1200ED
:1032B000AC51070A07E00B0A0AE0060A10E0020A0E
:1032C00014E018D0010EAD6FAE6FE1DF18D0B16B16
:1032D000010EB26F71DF020EAD6FE5DE10D0010E90
:1032E000AD6F020EAE6FD3DF0AD0B16B100EB26FAE
:1032F00063DF05D0010EB16FACC0B2F05DDF12002C
:103300000900F5520CE0F6CF9FF0F7CFA0F0F5CF13
:10331000ACF0CEDF9FC0F6FFA0C0F7FFF1D71200E0
:10332000AD6BAE6BB4DF080EF66E300EF76EE8DFF5
:10333000AD6B010EAE6FABDF0C0EF66E300EF76E9E
:10334000DFDFF1EF20F0010EAB5F0CE3EA6AAB0EBA
:10335000E96EEF5007E0020E006E002EFED700D09F
:10336000EF2EF9D71200AD6BAE6BAD6BAD51070808
:1033700014E3D890AE37928480A4FDD7770E006E08
:10338000002EFED700D0928480A401D0AE8192841A
:1033900080B4FDD7010EAD27E9D7AEC001F009EF2B
:1033A0001AF0A891A96BAA6B92948984929489943B
:1033B000120EAD6F78DE92948984670E006E002E37
:1033C000FED700D09284A89180B4A881A8A103D090
:1033D000010E016E42D0500EAB6FB5DF9284A89102
:1033E00080B4A881A8B103D0020E016E36D0500E71
:1033F000AB6FA9DFA96BA951040814E3036AA951B3
:10340000860F016E000E032201C0ABF003C0ACF0CA
:10341000AAD7ACC0EAFFABC0E9FF01C0EFFF010EC5
:10342000A927E9D792948984A96BA95103080CE3D1
:10343000036AA951860FE96E000E0320EA6EEF5071
:10344000AA27010EA927F1D78A51AA5D04E0030E2D
:10345000016E03D002D0000E016EF4EF20F0B351E4
:10346000016AB25D03E2B2C000F00CD0006A080E3F
:10347000B46FB2370036B351005CD8B0006E01367D
:10348000B42FF7D712008CC0EAFF8BC0E9FFB2C09F
:10349000EFFFE92AD8B4EA2AEF6A8B2BD8B48C2B39
:1034A00012000150B0C0B2F0640EB36FD8DF00C09C
:1034B000B0F00150300E07E1B1A30CD0B1B70AD083
:1034C000B1B9200E03D0B197B199B181012601C0E5
:1034D000B2F0D9DFB0C0B2F00A0EB36FC0DF00C0E7
:1034E000B0F00150300E06E1B1B708D0B1A106D05E
:1034F000B1B9200E012601C0B2F0C5DF300EB027F1
:10350000B0C0B2F0C0DF1200BF51D8B471D0006EAD
:10351000C351D8B46DD0002604E3810E002668E2C2
:1035200004D07F0E005E64E363E0C0C0C7F0C45106
:10353000C71BC08FC48FC251C603F4CFC9F0C1519D
:10354000C503F4CF03F0F3CFC8F0C603F350C92787
:10355000F450C823000E0322C251C503F350C927FB
:10356000F450C823000E026A03220222C051C6038F
:10357000F350C827F4500322000E0222C051C503A5
:10358000F3500326F4500222000E016A0122C251B8
:10359000C403F350C827F4500322000E0222012274
:1035A000C151C403F3500326F4500222000E01223D
:1035B000C051C403F3500226F4500122002A01BE78
:1035C00005D0C8370336023601360006000EC8AFF4
:1035D0000AD0032A02220122015005E1025003E130
:1035E000035001E1002AC7BF018EC7AF019E04D07E
:1035F000006A016A026A036A12008E0E006EC4C07D
:1036000001F0C3C002F0036A015209E102C001F0F7
:10361000026A080E005E015202E1006A08D0D890EA
:1036200001BE04D0023601360006F9D7019E120011
:10363000C351D8B4A5D0CF6FC751D8B4A1D0CF5FF4
:1036400005E37F0ECF27D8B09BD006D0810ECF5F89
:10365000D8A096D0D8B494D0CFC000F0016A026A46
:10366000036ACE6BC4C0CDF0CD8FC5C0CCF0C6C050
:10367000CBF0190ECF6FCA51CB5F0DE2010ECC5FBC
:103680000AE2CD5F08E2CE5F06E2CE2BCD2BCC2B3B
:10369000CA51CB2728D0C951CC5F12E2010ECD5FB1
:1036A0000FE2CE5F0DE2CE2BCD2BC951CC27CA51F4
:1036B000CB2719E3CC2B17E1CD2B15E1CE2B13D063
:1036C000C8518009CD5F0EE2010ECE5F0BE2CE2B1A
:1036D000C8518009CD27C951CC27E9E3CD2BE7E1BB
:1036E000CE2BE5D70380CF2F01D00BD0D890CB378E
:1036F000CC37CD37CE37D890033602360136D037A7
:10370000BAD7D0A106D0D890013202320332D033DA
:1037100002D0000635E0D0BF1ED0D890CB37CC37D2
:10372000CD37CE37CA51CB5F07E2010ECC5F04E242
:10373000CD5F02E2CE5F1AE3C951CC5F05E2010E14
:10374000CD5F02E2CE5F12E3C8518009CD5F03E294
:10375000010ECE5F0BE3032A09E1022A07E1012AE9
:1037600005E1002A0DE0013202320332C4C0CFF07D
:10377000C851CF1BCFAF02D0018E06D0019E04D01E
:10378000006A016A026A036A78EF1DF0800ED8B2FF
:10379000C81BCD6BCE6BC4C0CCF0C851CC1BC35181
:1037A000D8B4DCD0CB6F006EC751D8B4E0D0CB5FBB
:1037B000D8B481D03DE3C8C0D1F0D18FC9C0D0F01A
:1037C000CAC0CFF0CE6BD890D133D033CF33CE3305
:1037D000CB2FF8D7CCAF03D0CD81DDD0CD91CB911D
:1037E000CD89EA6AC60EE96EE9D0CD99CCBF0AD080
:1037F000CBA113D0D133D033CF33CE33002AD8B4BA
:10380000C5D00BD0D1BF0CD0D890CE37CF37D03762
:10381000D1370006D8B4BAD0F5D7CD8D6BD0CD9DB9
:10382000C4C0CCF0C4AF02D0D18FA9D0D19FA7D053
:10383000C7C0CBF0C7C000F0C351CB5FC4C0D1F04C
:10384000D18FC5C0D0F0C6C0CFF0CE6BD890D133E9
:10385000D033CF33CE33CB2FF8D7CCAF03D0CD83FB
:103860009AD0CD93CB91CD8BEA6ACA0EE96EA6D0E1
:10387000CD9BCCBF0AD0CBA113D0D133D033CF3323
:10388000CE33002AD8B482D00BD0D1BF0CD0D89080
:10389000CE37CF37D037D1370006D8B477D0F5D769
:1038A000CD8F28D0CD9FC8C0CCF0C8AF02D0D18F6B
:1038B00066D0D19F64D0C8C0D1F0D18FC9C0D0F03C
:1038C000CAC0CFF0CCAF04D0D19FCD8564D0CD9508
:1038D000CE6BCB91EA6AC60EE96E70D0CCBF1CD01D
:1038E000C4C0CCF0CBA106D0D133D033CF33CE334C
:1038F000002A4CE0CEAF0BD0CF2B09E1D02B07E153
:10390000D12B05E1D133D033CF33002A3FE0CDBDF9
:1039100086D7CDBFC7D71CD0800ED11BD1AF04D066
:103920003AD0C8C0CCF00AD0C4C0CCF0D15306E124
:10393000D05304E1CF5302E1006A21D0D1BF08D0B7
:10394000D890CE37CF37D037D137002EF7D71ED00B
:10395000CCAF02D0D18F13D0D19F11D0C7C000F00F
:10396000C8C0D1F0C9C0D0F0CAC0CFF008D0C3C021
:1039700000F0C4C0D1F0C5C0D0F0C6C0CFF0D1C0F7
:1039800001F0D0C002F0CFC003F034D0006A016A69
:10399000026A036A2FD0CE6BCF1FD01FD11FCE1F5C
:1039A000CE2B05E1CF2B03E1D02B01E1D12BCDB103
:1039B00015D7CDB356D7CDB58AD7B3D7EF50CF27CC
:1039C00005E3D02B03E1D12BD8B4CB81ED52EF50DE
:1039D000D02703E3D12BD8B4CB81ED52EF50EFBE0B
:1039E00001D0800AD127D8B0CB81CDB9FED6CDBBCE
:1039F0003FD774D71200B76BB66BB56B7F0EB46F41
:103A0000BB6BBA6BB96BB86BBC81BC93BC95BE6B1E
:103A1000B051B11105E1006A016A026A036A01D17D
:103A2000BE51BE2BB025E96E000EB121EA6EEFCF7C
:103A3000BDF0BD53D8B4BAD0BCA10FD0BD51200841
:103A40000CE0BC91BD512B0803E1BC93A5D005D07F
:103A5000BD512D0802E1BC839FD0BCB107D0BD5140
:103A60002E0804E1BCB502D0BC8596D0BCB191D083
:103A7000BD512F08D8B08DD0BD513908D8A089D0FC
:103A8000300EBD5FBCA54FD0B7C0C2F0B6C0C1F00C
:103A9000B5C0C0F0B4C0BFF0C66BC56B200EC46F1C
:103AA000820EC36F31DD03C0B7F002C0B6F001C0B3
:103AB000B5F000C0B4F0C46BBDC0C3F09EDD03C060
:103AC000C2F002C0C1F001C0C0F000C0BFF003C02E
:103AD000C6F002C0C5F001C0C4F000C0C3F0B7C05A
:103AE000CAF0B6C0C9F0B5C0C8F0B4C0C7F0A0D520
:103AF000D892BBC0C6F0BAC0C5F0B9C0C4F0B8C057
:103B0000C3F003C0CAF002C0C9F001C0C8F000C0D1
:103B1000C7F03CDE03C0BBF002C0BAF001C0B9F090
:103B200000C0B8F035D0C26BC16B200EC06F820EE2
:103B3000BF6FBBC0C6F0BAC0C5F0B9C0C4F0B8C052
:103B4000C3F0E2DC03C0C2F002C0C1F001C0C0F0AB
:103B500000C0BFF0C46BBDC0C3F04FDDD892C2C07F
:103B6000C6F0C1C0C5F0C0C0C4F0BFC0C3F003C040
:103B7000CAF002C0C9F001C0C8F000C0C7F006DE3C
:103B800003C0BBF002C0BAF001C0B9F000C0B8F089
:103B900003D0BCB101D00AD0BE51BE2BB025E96E16
:103BA000000EB121EA6EEFCFBDF043D7BCA317D012
:103BB000C26BC16B800EC06F7F0EBF6FBBC0C6F003
:103BC000BAC0C5F0B9C0C4F0B8C0C3F09DDC03C032
:103BD000BBF002C0BAF001C0B9F000C0B8F0B251F9
:103BE000B31117E0BE530CE0BE07B2C0E9FFB3C08B
:103BF000EAFFBE51B025EF6E000EB121EC6E09D088
:103C0000B2C0E9FFB3C0EAFFB1C0ECFFED52B0C0F3
:103C1000EFFFB8C000F0B9C001F0BAC002F0BBC0FD
:103C200003F029EF1EF08C6BAA0E8B6FA8C0B0F0CA
:103C30001B0EB16F36DC2E0EB26F25DCA9C0B0F0C2
:103C4000080EB16F2EDCB16BAA0EB06FB36BB26B06
:103C5000D2D61200AC51B608AC6F036AADC0B0F05A
:103C6000AD8FD890AD33AE33AF3303320232013271
:103C70000032AC2FF6D7B0AF0BD0001E011E021ED3
:103C8000031E002AD8B4012AD8B4022AD8B4032AC1
:103C90001200D8B203D0EA6AB40EE96E006A016A73
:103CA000026A036AB46BB56BB66BB76BB351B211F2
:103CB000B111B0112CE0200EB86FD890AC37AD37F1
:103CC000AE37AF37B437B537B637B737B351B75D5F
:103CD00008E1B251B65D05E1B151B55D02E1B05107
:103CE000B45D0FE3B051B45FB151D8A0B13DB55F41
:103CF000B251D8A0B23DB65FB351D8A0B33DB75FC3
:103D0000D8800036013602360336B82FD6D7B4C075
:103D1000EFFFB5C0ECFFB6C0ECFFB7C0ECFF120080
:103D2000E950A46FA351A66F1AE0A2C0C2F0A1C0CF
:103D3000C1F0A0C0C0F09FC0BFF0C66BC56B200E25
:103D4000C46F820EC36F84EC1AF003C0A2F002C0ED
:103D5000A1F001C0A0F000C09FF0A62FE6D7A2C03E
:103D6000AFF0A1C0AEF0A0C0ADF09FC0ACF072DF6C
:103D700003C0A2F002C0A1F001C0A0F000C09FF0FB
:103D8000A2AF0DD0A407A48B9F1FA01FA11FA21F2D
:103D90009F2BD8B4A02BD8B4A12BD8B4A22B3B0E08
:103DA000AB6F9A0EAA6FCA0EA96FA86B0A0EA66F08
:103DB000A351D8B4A42BD882EA6A9F0EE96EA2C0A0
:103DC000AFF0A1C0AEF0A0C0ADF09FC0ACF0ABC0F2
:103DD000B3F0AAC0B2F0A9C0B1F0A8C0B0F059DFEA
:103DE000015000520FE1A329A65D0CE0A4510CE0A4
:103DF0000F0BA65D01E03BE2A4BF39D0A4BD04D007
:103E0000200E30D0200EA417A4AB0DD0A49BA3513C
:103E1000D8A4A4070050A46F2D0EAC6F58EC19F075
:103E2000A451006EA46BA351A65D0BE10050A46FDA
:103E30002E0EAC6F58EC19F0A451006E200EA41792
:103E4000000E300EA4AB0ED0A49BA351D8A4A4079F
:103E50000050A46F2D0EAC6F58EC19F0A451006EF9
:103E6000A46B300E002600C0ACF058EC19F0D892CC
:103E7000ABC0AFF0AAC0AEF0A9C0ADF0A8C0ACF026
:103E8000B36BB26BB16B0A0EB06F03DF03C0ABF064
:103E900002C0AAF001C0A9F000C0A8F0A62F8BD7DD
:103EA0001200060EAD6F010EAE6F47EC19F0890ED1
:103EB000E96E90C0A2F08FC0A1F08EC0A0F08DC0BE
:103EC0009FF0010EA36F2CDF040EAD6FAE6B47ECBD
:103ED00019F0890EE96E94C0A2F093C0A1F092C0CF
:103EE000A0F091C09FF0010EA36F1ADF1FEF21F029
:103EF0000900F5520DE0F6CF9FF0F7CFA0F0F55096
:103F00009EA8FED7AD6E9FC0F6FFA0C0F7FFF0D70A
:103F100012000900F6CFA0F0F7CFA1F0F5509EA84F
:103F2000FED7AD6EA0C0F6FFA1C0F7FF9F2FF1D75F
:103F30001200E950A46FA351A66F1AE0A2C0C2F00C
:103F4000A1C0C1F0A0C0C0F09FC0BFF0C66BC56BE0
:103F5000200EC46F820EC36F84EC1AF003C0A2F06F
:103F600002C0A1F001C0A0F000C09FF0A62FE6D7CC
:103F7000A2C0AFF0A1C0AEF0A0C0ADF09FC0ACF049
:103F800069DE03C0A2F002C0A1F001C0A0F000C031
:103F90009FF0A2AF0DD0A407A48B9F1FA01FA11F4D
:103FA000A21F9F2BD8B4A02BD8B4A12BD8B4A22B7E
:103FB0003B0EAB6F9A0EAA6FCA0EA96FA86B0A0EC2
:103FC000A66FA351D8B4A42BD882EA6A9F0EE96EDB
:103FD000A2C0AFF0A1C0AEF0A0C0ADF09FC0ACF0E9
:103FE000ABC0B3F0AAC0B2F0A9C0B1F0A8C0B0F0A5
:103FF00050DE015000520FE1A329A65D0CE0A45150
:104000000CE00F0BA65D01E03BE2A4BF39D0A4BDDC
:1040100004D0200E30D0200EA417A4AB0DD0A49B4A
:10402000A351D8A4A4070050A46F2D0E9EA8FED7BC
:10403000AD6EA451006EA46BA351A65D0BE10050C0
:10404000A46F2E0E9EA8FED7AD6EA451006E200E5A
:10405000A417000E300EA4AB0ED0A49BA351D8A47D
:10406000A4070050A46F2D0E9EA8FED7AD6EA451DC
:10407000006EA46B300E002600509EA8FED7AD6ED9
:10408000D892ABC0AFF0AAC0AEF0A9C0ADF0A8C046
:10409000ACF0B36BB26BB16B0A0EB06FFADD03C05C
:1040A000ABF002C0AAF001C0A9F000C0A8F0A62F92
:1040B0008BD71200120EF66E300EF76E19DF040E5B
:1040C0009F6FFA0EAD6F53EC18F09F2FFAD7180EB2
:1040D000F66E300EF76E0CDF040E9F6FFA0EAD6FAA
:1040E00053EC18F09F2FFAD7260EF66E300EF76EAF
:1040F000FFDE040E9F6FFA0EAD6F53EC18F09F2F8A
:10410000FAD7520EF66E300EF76EF2DE040E9F6F87
:10411000FA0EAD6F53EC18F09F2FFAD7660EF66EBD
:10412000300EF76E2C0E9F6FF4DE890EE96E90C094
:10413000A2F08FC0A1F08EC0A0F08DC09FF0010E44
:10414000A36FF7DE960EF66E300EF76E080E9F6FB9
:10415000E0DE890EE96E94C0A2F093C0A1F092C097
:10416000A0F091C09FF0010EA36FE3DE0A0E9EA89F
:10417000FED7AD6E040E9F6FFA0EAD6F53EC18F0C4
:104180009F2FFAD724EF21F0F86AD09E078E7F6B1D
:10419000B896190EAF6EA60EAC6E900EAB6E8C6B11
:1041A0008B6B906B8F6B700E8E6F830E8D6F946B1D
:1041B000936B700E926F830E916FC150C00B0F09FD
:1041C000C16E070EB46E806B816BFFEF18F03DEF90
:1041D00019F0A40EF66E300EF76E80EC19F090EF29
:1041E00019F09F6BD1EF19F001C09FF09F51010AA8
:1041F00005E0030A03E0010A02E002D01FD01ED04E
:1042000088C0A8F089C0A9F00EDD03C090F002C0FC
:104210008FF001C08EF000C08DF086C0A8F087C07E
:10422000A9F001DD03C094F002C093F001C092F048
:1042300000C091F0C80EAD6F53EC18F032D6190ED5
:0C424000AD6F53EC18F036D7CCD703005C
:020000040030CA
:0E00000024CE3E1E0085A1000FC00FE00F4071
:00000001FF
;PIC18F4550
;CRC=6DBB  CREATED="20-Jul-22 23:52"
