:04200000DEEF19F006
:08200800046ED8CF05F0E0CF13
:1020100006F00001E9CF0CF0EACF07F0E1CF08F0BD
:10202000E2CF09F0D9CF0AF0DACF0BF0F3CF12F0FC
:10203000F4CF13F0FACF14F0F5CF15F0F6CF16F079
:10204000F7CF17F000C00EF001C00FF002C010F083
:1020500003C011F0A0AA30EF10F0A1BAC7EF17F03B
:102060000EC000F00FC001F010C002F011C003F06C
:102070000CC0E9FF07C0EAFF078E08C0E1FF09C0F6
:10208000E2FF0AC0D9FF0BC0DAFF12C0F3FF13C092
:10209000F4FF14C0FAFF15C0F5FF16C0F6FF17C015
:1020A000F7FF045006C0E0FF05C0D8FF1000F76A34
:1020B000BE0FF66E200EF7220900F5501200000345
:1020C00002FFFFFFFFFFFFFFFFFFFFFFFFFFF76ABA
:1020D000DE0FF66E200EF7220900F550120000FF09
:1020E00002FFFFFFFFFFFFFFFFFFFFFFFFFFF76A9A
:1020F000FE0FF66E200EF7220900F5501200400088
:102100000B00400000000000000000000000000084
:102110000000000000000000000000000000F76A5E
:102120002E0FF66E210EF7220900F5501200400026
:10213000000040000000000000000000000000005F
:102140000000000000000000000000000000F76A2E
:102150005E0FF66E210EF7220900F55012000902FB
:102160004300020100803209040000010202010064
:1021700005240010010424020205240600010524A0
:10218000010001070581030B00FA09040100020A9E
:10219000000000070502024000010705820240001E
:1021A0000100F76AB20FF66E210EF7220900F55012
:1021B00012000200F76AC40FF66E210EF722090022
:1021C000F550120012171B20FFFFFFFFF76ADC0F0C
:1021D000F66E210EF7220900F550120012011001CF
:1021E00002000040D8040200000101020001F76A69
:1021F000FE0FF66E210EF7220900F55012000403BF
:102200000904080343004300530020034300430034
:1022100053002000550053004200200074006F005E
:10222000200055004100520054006D92699468A44A
:1022300002D06894FCD76898D3EF17F0400E0401E1
:10224000016F040E0001D36F180ED3C003F4E8CF62
:1022500002F4880E0401006F046B040E076F580E21
:10226000066F0001120070A002D0E8DF7090689A3B
:10227000DAEF17F06A6A6892DFEF17F0DF91DEBFDE
:10228000DF81DE9FDE51100803E2000E016E16D0E2
:10229000DFA10BD0036ADE510ADFFF0802E1000E66
:1022A00001D0010E016E0AD009D0036ADE510FDFA2
:1022B000FF0802E1000E01D0010E016E1200E35191
:1022C000E503F3CF01F0F4CF00F0E603F35000266E
:1022D000E451E503F3500020026E1200036ADD5161
:1022E000700FE96E0F0E0320EA6EEF6ADDC0DEF0BC
:1022F000C5DF015222E0E46BDDC0E3F0E66B080EBF
:10230000E56FDDDF01C0E9FF040E0224EA6EEF6A2B
:10231000E46BDDC0E3F0E66B080EE56FD0DF02C0D2
:10232000DFF001C0DEF0040EDE27000EDF23DEC08A
:10233000E9FF040EDF25EA6EEF6A1200010EDC6F82
:10234000DC510F0805E3DCC0DDF0C8DFDC2BF8D77B
:102350001200D66BD56B250ED46F800ED36FD3C011
:1023600028F0D4C029F02A6A2B6AD36BD3C02CF092
:10237000D36BD3C02DF0080ED36FD3C02EF07D6B7E
:102380007C91306A2F6A786B79917E6BD9EF11F06E
:10239000246A236AD26BD25101080AE3036AD2513C
:1023A000260FE96E000E0320EA6EEF6AD22BF3D7F8
:1023B000D0D71A6A010E1B6E196AE9EF11F0689600
:1023C00012006B6A696A6A6A686A6E6A706AB6DF66
:1023D000DFD7160E706E68A602D0F1DFFCD79F0E15
:1023E0006B6E3D0E696E6D9829DF030E1E6EE4EF75
:1023F00017F0698469986D82E9EF17F0689CEEEF39
:1024000017F0D7C01FF012001F681200D56B2350C1
:1024100024102DE0D5513F082AE31C5005E0020AA4
:1024200009E0010A0DE011D022C003F021508FDE37
:10243000D66F0BD022C003F02150D9DED66F05D065
:1024400022C003F02150C2DED66F212AD8B4222A3E
:102450002350D8B424062306D551D52B580FE96E46
:10246000040EEA6ED8B0EA2AD6C0EFFFD0D72350C8
:10247000241004E1D551400801E0196AD5C0D7F015
:10248000C0DF1200D46B226A216A1C6A04011B514E
:10249000010A000107E0030A0BE0010A0DE0220A2D
:1024A00025E03DD0246A120E236E030E1C6E39D037
:1024B000246A430E236E35D0020E1C6ED46B0401C9
:1024C0001A510001D45D09E222C003F021508FDED1
:1024D0002126000E2222D42BF2D722C003F0215055
:1024E00086DE036A236E03C024F01BD0036A040156
:1024F0001A5100015FDE036A216E03C022F0213C05
:1025000002D022520AE022C003F0215020DE036AEA
:10251000236E03C024F005D002D076DF11D074DF23
:102520000FD004011F5308E1245203E123501E5D24
:1025300003E2246A1EC423F0010E196E000166DF57
:10254000C8EF13F0D45304E1040E1E6EF7DECBD0B7
:10255000050E1E6E040ED76F980ED66F010ED56F46
:10256000D5510F08D8A0BFD0D5C0DDF0B7DED86BED
:10257000036AD551ACDDFF085BE0040ED86FD8903C
:10258000D535036ACCDD0900F5CF03F0D96F03C060
:10259000DAF0E46BD5C0E3F0E66B080EE56F8FDE92
:1025A00001C0DCF0010E0124016E000E0220036E5A
:1025B00001C0E9FF040E0324EA6ED9C0EFFFE46B0B
:1025C000D5C0E3F0E66B080EE56F79DE01C0DCF004
:1025D000020E0124016E000E0220036E01C0E9FF0D
:1025E000040E0324EA6ED7C0ECFFED52D6C0EFFF15
:1025F000D890D535036A93DD0900F5CF03F0D627CF
:102600000350D723880EDB6FDAA101D0DB81DAA378
:1026100001D0DB83E46BD5C0E3F0E66B080EE56F19
:102620004EDE01C0E9FF040E0224EA6EDBC0EFFFBC
:10263000036AD5513CDDFF0840E0D883E46BD5C088
:10264000E3F0E66B080EE56F3ADE02C0DDF001C094
:10265000DCF0040EDC27000EDD23020EDC25016E0B
:10266000000EDD21036E01C0E9FF040E0324EA6EB3
:10267000D7C0ECFFED52D6C0EFFFD890D535036A36
:1026800036DD0900F5CF03F0D6270350D723E46BDE
:10269000D5C0E3F0E66B080EE56F11DE02C0DDF099
:1026A00001C0DCF0040EDC27000EDD23DCC0E9FFF6
:1026B000040EDD25EA6E400EEF6ED851060802E1E9
:1026C0000E0ED86F036AD551F2DC010801E0D889FB
:1026D000036AD551700FE96E0F0E0320EA6ED8C061
:1026E000EFFFD52B3DD7C2EF13F004011951000ABB
:1026F00000010DE0010A14E0020A1FE0060A29E0C9
:10270000030A2EE00E0A2EE0010A32E040D01BC080
:1027100058F40401596B020E0001D76F72DE38D0F5
:1027200004011A2D07D0010E1B160001D76B69DEBC
:1027300003D00401000168DE2BD004011A2D06D05D
:102740001B820001D76B5DDE03D0040100015CDE5B
:102750001FD0020E196E1AC420F0D76B52DE18D0AB
:1027600091D616D01AC058F4010ED76F4ADE10D099
:1027700004011A51010809E31AC41AF01AC4D4F06A
:102780000001E0D6D76B3DDE0401000101D03CDE44
:1027900043EF15F01AC0D4F004011951000A0001EA
:1027A00005E00A0A0BE0010A26E037D00401586B65
:1027B000596B020E0001D76F24DE30D0D45319E0DC
:1027C000010ED45D036AEDDC016E04011C5DD8A02E
:1027D00002D000010ED0036A1C51260FE96E000ED4
:1027E0000320EA6EEFCF58F4010E0001D76F09DE27
:1027F00001D00ADE13D0D4530EE0036A04011C5149
:10280000260FE96E000E0320EA6E1AC4EFFF0001E6
:10281000D76BF7DD01D0F8DD01D0F6DD43EF15F021
:10282000D591D4BFD581D49FD5A117D0E46BD4C0A6
:10283000E3F0E66B080EE56F42DD02C0D7F001C0A1
:10284000D6F0040ED627000ED723D6C0E9FF040E1B
:10285000D725EA6E880EEF6E0DD0E46BD4C0E3F09E
:10286000E66B080EE56F2BDD01C0E9FF040E0224C4
:10287000EA6EEF6A036AD451700F016E0F0E0322E5
:1028800001C0E9FF03C0EAFFEF90BBEF14F0D59160
:10289000D4BFD581D49FD5A117D0E46BD4C0E3F0C9
:1028A000E66B080EE56F0BDD02C0D7F001C0D6F075
:1028B000040ED627000ED723D6C0E9FF040ED72575
:1028C000EA6E840EEF6E0ED0E46BD4C0E3F0E66BDC
:1028D000080EE56FF4DC01C0E9FF040E0224EA6E85
:1028E000840EEF6EC1EF14F0D591D4BFD581D49F83
:1028F000D5A117D0E46BD4C0E3F0E66B080EE56F0A
:10290000DEDC02C0D8F001C0D7F0040ED727000EDD
:10291000D823D7C0E9FF040ED825EA6EEFCFD6F052
:102920000ED0E46BD4C0E3F0E66B080EE56FC7DCB5
:1029300001C0E9FF040E0224EA6EEFCFD6F0D6AF55
:1029400002D0D6B502D0000E01D0010E016ECBEF41
:1029500014F01CC4DEF092DC015228E0040119518D
:10296000010A000105E0020A09E0030A0DE01DD09A
:102970001CC4D4F055D7D76B44DD18D01CC4D4F098
:1029800086D7D76B3EDD12D00401586B596B1CC43F
:10299000D4F00001A9D7015204E0010E0401586FE0
:1029A0000001020ED76F2DDD01D02EDD43EF15F0B3
:1029B000FE0E1F6E120004011C2D01D002D01C530C
:1029C00048E11951000A00010BE0010A0DE0210A5B
:1029D0001CE0010A1FE0030A2EE0010A31E037D0B3
:1029E000010E7E6FE5DF34D0040EEA6E580EE96EFC
:1029F000E26A310EE16E080E016EE6CFEEFF012EA7
:102A0000FCD71EC4D7F0FDDC23D0020E7E6F7C8184
:102A1000CFDF1ED0040EEA6E580EE96EE26A280E71
:102A2000E16E070E016EE6CFEEFF012EFCD7070E1A
:102A3000D76FE7DC0DD01AC47DF0D76BE2DC08D08D
:102A40001AC430F01BC42FF0D76BDBDC01D0DCDC08
:102A50000401000143EF15F0196A040118517F0BBE
:102A6000000A000107E0010A07E0030A07E0230A61
:102A700007E008D03AD607D08DD605D06AD703D064
:102A80009AD701D0C1DC7DEF17F0E46BD5C0E3F03D
:102A9000E66B080EE56F13DC01C0E9FF040E0224AB
:102AA000EA6EEFCFD7F0D651020806E1D7AD02D0DB
:102AB000D66B02D0010ED66FD65103081AE1840EF0
:102AC000D76FE46BD5C0E3F0E66B080EE56F5FEC03
:102AD00011F002C0DBF001C0DAF0040EDA27000EBC
:102AE000DB23DAC0E9FF040EDB25EA6E840EEF6E0D
:102AF00007D0D62D03D0C80ED76F02D0880ED76F5F
:102B0000D890D535036A8FEC10F00900F5CF03F0AB
:102B1000D86F03C0D9F0E46BD5C0E3F0E66B080EC4
:102B2000E56F5FEC11F001C0DAF0010E0124016ED7
:102B3000000E0220036E01C0E9FF040E0324EA6EBA
:102B4000D8C0EFFFD9A101D0D781D9A301D0D783B5
:102B5000E46BD5C0E3F0E66B080EE56F5FEC11F0B7
:102B600001C0E9FF040E0224EA6ED7C0EFFF120095
:102B7000036AE251700FE96E0F0E0320EA6EEF5206
:102B800019E0E46BE2C0E3F0E66B080EE56F5FEC82
:102B900011F002C0E4F001C0E3F0040EE327000EE0
:102BA000E423E3C0E9FF040EE425EA6EEFCFE5F08D
:102BB000E5AF02D0000E01D0010E016E1200DDC0A3
:102BC000E2F0D6DF0152D8B48FD0E46BDDC0E3F081
:102BD000E66B080EE56F5FEC11F002C0E3F001C098
:102BE000E2F0040EE227000EE323010EE225016E5F
:102BF000000EE321036E01C0E9FF040E0324EA6E18
:102C0000DEC0EFFFE05102081EE1E46BDDC0E3F03F
:102C1000E66B080EE56F5FEC11F002C0E3F001C057
:102C2000E2F0040EE227000EE323E2C0E9FF040E07
:102C3000E325EA6EEFCFE1F0E1AD02D0E06B02D028
:102C4000010EE06F18D0E051040815E1E46BDDC01F
:102C5000E3F0E66B080EE56F5FEC11F001C0E9FFF1
:102C6000040E0224EA6EEFCFE1F0E1AD03D0010ED5
:102C7000E06F01D0E06BE02D03D0480EE16F02D091
:102C8000080EE16FE46BDDC0E3F0E66B080EE56F64
:102C90005FEC11F002C0E3F001C0E2F0040EE227A5
:102CA000000EE323E2C0E9FF040EE325EA6EE1C073
:102CB000EFFFE46BDDC0E3F0E66B080EE56F5FEC61
:102CC00011F002C0E3F001C0E2F0040EE227000EB2
:102CD000E323E2C0E9FF040EE325EA6EEF5080092A
:102CE000EF6E010E016E02D0000E016E12007E51D9
:102CF000010A03E0030A13E024D0EA6A310EE96E08
:102D0000040EE26E180EE16E080E016EE6CFEEFFC5
:102D1000012EFCD7D76B01EC12F07E6B13D0EA6A60
:102D2000280EE96E040EE26E180EE16E070E016EBB
:102D3000E6CFEEFF012EFCD77E6BD76B01EC12F0D5
:102D400001D07E6BD8EF16F0E46BD5C0E3F0E66BF4
:102D5000080EE56F5FEC11F002C0D7F001C0D6F0AD
:102D6000010E0124016E000E0220036E01C0E9FF76
:102D7000040E0324EA6E036AEFCF01F003C002F0F1
:102D8000CEEF16F07991020ED56FD66F7EDED3EFBF
:102D900016F079817B6B020ED56FD6D701C07AF021
:102DA0007A5301E1EFD7DDEF16F0D45302E19FD75C
:102DB00004D0D451020801E1ECD71200D5C06EFF57
:102DC000D55303E0040E1E6E02D0020E1E6EEEEF0F
:102DD00016F01A6A196A20C0D5F0F0D75CEF17F028
:102DE000D5C0E2F0C5DE015243E0E46BD5C0E3F0AC
:102DF000E66B080EE56F5FEC11F002C0DEF001C07B
:102E0000DDF0040EDD27000EDE23020EDD25016E4F
:102E1000000EDE21036E01C0E9FF040E0324EA6EFA
:102E2000ECCFDCF0ED52EFCFDBF0DCC0EAFFDBC033
:102E3000E9FFD7C0E2FFD6C0E1FFD9C002F0D8C099
:102E400001F0015202E0022A02D0025206E0E6CF6F
:102E5000EEFF012EFCD7022EFAD7D5C0DDF0D9C087
:102E6000DFF0D8C0DEF0DAC0E0F0A9DE015002D019
:102E7000000E016E49EF17F078530EE0020ED56F89
:102E8000D76B390ED66FD96B78C0D8F0020EDA6FD7
:102E9000A7D7015201E0786B4FEF17F0EDD761EF44
:102EA00017F0D4530AE1192C03D006EC12F004D029
:102EB00019500208D8B48DD704D0D451020801E1CA
:102EC000EDD712001D30D26FD233D2331F0ED2177E
:102ED0001D5241E1040100513C0B0001D36F430E30
:102EE000040100170001D35134081EE1040104510C
:102EF000800B01E0046B0001AFD56D981F3C05D03D
:102F0000D56B030ED66FC1DD0ED0D56B020ED66F1A
:102F1000BCDD1F50FE0807E0DD6BDF6B1FC0DEF07D
:102F2000040EE06F4CDE16D0D351040813E1D46BCD
:102F30003CDFD56B020ED66FA8DD1F50FE080AE0FD
:102F40001F3C01D007D0DD6BDF6B1FC0DEF0010E30
:102F5000E06F35DE1AD01D5004080EE11F68D46BF7
:102F6000A0DF1F3C01D007D0DD6BDF6B1FC0DEF0A0
:102F7000020EE06F24DE09D01DB404D0D2C0D4F01C
:102F800014DF03D0D2C0D4F08CDFF8EF17F0A19A91
:102F90001E52D8B433D06852D8B430D068A403D00D
:102FA00069B415EF11F06DB229D068AA03D069BADF
:102FB00033EF11F068A203D069B23AEF11F068A0C4
:102FC00003D069B0E1EF11F068A803D069B8F9EF58
:102FD00011F068AC03D069BCFEEF11F0D16B68A6AC
:102FE00008D069A606D06CCF1DF0DFEC11F06AD7CF
:102FF00001D004D0D151D12B0308F1E230EF10F011
:103000000C004D697320646F7320616D6F7265737E
:1030100000005374656C6C612079205961796F20D0
:103020003C330000526563656976653A2025730D6F
:103030000A000C005265636962693A00EA6AC90EC7
:10304000E96EEF500EE00F0E016E006A002EFED703
:10305000012EFBD78F0E006E002EFED70000EF2E44
:10306000F2D71200CEB102D08C9801D08C889598FE
:10307000CEB302D08C9A01D08C8A959ACEB502D06C
:103080008C9C01D08C8C959CCEB702D08C9E01D0AC
:103090008C8E959E00008C849594070E006E002EF9
:1030A000FED700D08C9495941200CF6B9588000EBB
:1030B00083B8010ECF13958A000E83BA010E006EFD
:1030C000D89000360050CF13958C000E83BC010EB3
:1030D000006E00360036FC0E00160050CF13958EA1
:1030E000000E83BE010E006E003600360036F80E6C
:1030F00000160050CF13CFC001F012009588958ABA
:10310000958C958E8C82959200008C84959400000D
:10311000CCDF01C0CEF08C94959400008C84959403
:10312000030E006E002EFED700D0BFDF01C0CDF031
:103130008C9495949598959A959C959ECE39006E11
:10314000F00E00160050CD11016EADEF18F0959401
:10315000959095928C909590D1D701C0CDF001BEFD
:10316000FBD7CB5302E18C9001D08C80959000006E
:103170008C92959200008C949594CC39CD6F0F0E63
:10318000CD17CDC0CEF06EDFCC510F0BCD6FCE6F13
:1031900069DF1200280EC56F0C0EC66F010EC76FD7
:1031A000060EC86F8C9495948C9095908C92959205
:1031B0009598959A959C959E9594959095920F0EBD
:1031C000C96F3CDF010EC46FC451030808E3030E4E
:1031D000CE6F48DF050EC96F31DFC42BF5D7020E65
:1031E000CE6F40DF050EC96F29DFC46BC4510308E1
:1031F0000DE3036AC451C50FE96E000E0320EA6EA9
:10320000EFCFCCF0CB6BA3DFC42BF0D71DEF1AF0C0
:10321000C82D01D003D0400EC96F01D0C96B010E7B
:10322000C75DC927C9518009CA6FCB6BCC6F8FDFCF
:103230001200C651070A07E00B0A0AE0060A10E06E
:10324000020A14E018D0010EC76FC86FE1DF18D072
:10325000CB6B010ECC6F7BDF020EC96FEFDE10D09F
:10326000010EC76F020EC86FD3DF0AD0CB6B100EF2
:10327000CC6F6DDF05D0010ECB6FC6C0CCF067DF21
:1032800012000900F5520CE0F6CFC4F0F7CFC5F0FC
:10329000F5CFC6F0CEDFC4C0F6FFC5C0F7FFF1D74B
:1032A00012009EAAFED7ABCF7FF0AECF01F07FA376
:1032B00002D0AB98AB8875EF19F07C93CA6BC96BE1
:1032C0009EBA10D0C92BD8B4CA2BCA51C3080AE37E
:1032D00003E1C9514F0806E3270E006E002EFED70A
:1032E00000D0EED79EAA04D0DCD7015004D003D082
:1032F0007C83000E016E1200C607C76BDEDF01C0C3
:10330000C8F0C851080804E1C75301E0C70712D04C
:10331000C8511F080FE2C8517E080CE3C651C75DB3
:1033200009E2C751C72BC425E96E000EC521EA6E1C
:10333000C8C0EFFFC8510D08E1E1C751C425E96ECF
:10334000000EC521EA6EEF6A3DEF1AF00900F6CFD4
:10335000C5F0F7CFC6F0F5509EA8FED7AD6EC5C03C
:10336000F6FFC6C0F7FFC42FF1D744EF1AF0EF52B3
:1033700010E0EACFC5F0E9CFC4F0EF509EA8FED729
:10338000AD6EC5C0EAFFC4C0E9FFE92AD8B4EA2A95
:10339000EED748EF1AF0EF520FE0EACFC5F0E9CFD1
:1033A000C4F0EFCFC6F045DFC5C0EAFFC4C0E9FFF7
:1033B000E92AD8B4EA2AEFD769EF1AF0F86AD09E62
:1033C000078E230E006E010E016E020EE96E000ED6
:1033D000EA6EEE6A002EFDD7012EFBD7DA0E006EE4
:1033E000040E016E260EE96E000EEA6EEE6A002EE5
:1033F000FDD7012EFBD7DD0E006E030E016E230EEE
:10340000E96E050EEA6EEE6A002EFDD7012EFBD79F
:103410007F6BB886E10EAF6E040EB06EA60EAC6E7A
:10342000900EAB6EC36BC26BC150C00B0F09C16E67
:10343000070EB46E806B816BADD6000EF66E300E4B
:10344000F76E1FDF010EC76FC86FE2DE020EF66E69
:10345000300EF76E16DF010EC76FC86BD9DE120E85
:10346000F66E300EF76E0DDF28DF015232E0C56BCD
:10347000820EC46F400EC66F3FD7240EF66E300E1C
:10348000F76E090EC46F62D7EA6A820EE96E6FD7D3
:103490000D0E9EA8FED7AD6E0A0E9EA8FED7AD6E8D
:1034A000640EC96FCBDD320EF66E300EF76EE9DEBC
:1034B000010EC76FC86FACDE340EF66E300EF76EBD
:1034C000E0DE010EC76FC86BA3DEEA6A820EE96E0A
:0634D00062D7CAD7030019
:020000040030CA
:0E00000024CE3E1E0085A1000FC00FE00F4071
:00000001FF
;PIC18F4550
;CRC=0E57  CREATED="07-Jul-22 18:09"
