:04200000E0EF1AF003
:08200800046ED8CF05F0E0CF13
:1020100006F00001E9CF0CF0EACF07F0E1CF08F0BD
:10202000E2CF09F0D9CF0AF0DACF0BF0F3CF12F0FC
:10203000F4CF13F0FACF14F0F5CF15F0F6CF16F079
:10204000F7CF17F000C00EF001C00FF002C010F083
:1020500003C011F0A0AA30EF10F0A1BAC5EF17F03D
:102060000EC000F00FC001F010C002F011C003F06C
:102070000CC0E9FF07C0EAFF078E08C0E1FF09C0F6
:10208000E2FF0AC0D9FF0BC0DAFF12C0F3FF13C092
:10209000F4FF14C0FAFF15C0F5FF16C0F6FF17C015
:1020A000F7FF045006C0E0FF05C0D8FF1000F76A34
:1020B000BE0FF66E200EF7220900F5501200000345
:1020C00002FFFFFFFFFFFFFFFFFFFFFFFFFFF76ABA
:1020D000DE0FF66E200EF7220900F550120000FF09
:1020E00002FFFFFFFFFFFFFFFFFFFFFFFFFFF76A9A
:1020F000FE0FF66E200EF7220900F5501200400088
:102100000B00400000000000000000000000000084
:102110000000000000000000000000000000F76A5E
:102120002E0FF66E210EF7220900F5501200400026
:10213000000040000000000000000000000000005F
:102140000000000000000000000000000000F76A2E
:102150005E0FF66E210EF7220900F55012000902FB
:102160004300020100803209040000010202010064
:1021700005240010010424020205240600010524A0
:10218000010001070581030B00FA09040100020A9E
:10219000000000070502024000010705820240001E
:1021A0000100F76AB20FF66E210EF7220900F55012
:1021B00012000200F76AC40FF66E210EF722090022
:1021C000F550120012171B20FFFFFFFFF76ADC0F0C
:1021D000F66E210EF7220900F550120012011001CF
:1021E00002000040D8040200000101020001F76A69
:1021F000FE0FF66E210EF7220900F55012000403BF
:102200000904080343004300530020034300430034
:1022100053002000550053004200200074006F005E
:10222000200055004100520054006D92699468A44A
:1022300002D06894FCD76898D1EF17F0400E0401E3
:10224000016F040E0001A96F180EA9C003F4E8CFB6
:1022500002F4880E0401006F046B040E076F580E21
:10226000066F0001120070A002D0E8DF7090689A3B
:10227000D8EF17F06A6A6892DDEF17F0B591B4BF36
:10228000B581B49FB451100803E2000E016E16D060
:10229000B5A10BD0036AB4510ADFFF0802E1000EBA
:1022A00001D0010E016E0AD009D0036AB4510FDFCC
:1022B000FF0802E1000E01D0010E016E1200B951BB
:1022C000BB03F3CF01F0F4CF00F0BC03F3500026C2
:1022D000BA51BB03F3500020026E1200036AB351DF
:1022E000700FE96E0F0E0320EA6EEF6AB3C0B4F010
:1022F000C5DF015222E0BA6BB3C0B9F0BC6B080E67
:10230000BB6FDDDF01C0E9FF040E0224EA6EEF6A55
:10231000BA6BB3C0B9F0BC6B080EBB6FD0DF02C0A4
:10232000B5F001C0B4F0040EB427000EB523B4C05C
:10233000E9FF040EB525EA6EEF6A1200010EB26FD6
:10234000B2510F0805E3B2C0B3F0C8DFB22BF8D723
:102350001200AC6BAB6B250EAA6F800EA96FA9C0E3
:102360002AF0AAC02BF02C6A2D6AA96BA9C02EF006
:10237000A96BA9C02FF0080EA96FA9C030F07E6B21
:102380007D91326A316A246A7A917F6B1200276AE2
:10239000266AA86BA85101080AE3036AA851280F0E
:1023A000E96E000E0320EA6EEF6AA82BF3D7D1DFA7
:1023B0001B6A010E1C6E1A6A1200689612006B6A84
:1023C000696A6A6A686A6E6A706AB8DFE0DF160E68
:1023D000706E68A602D0F1DFFCD79F0E6B6E3D0ECB
:1023E000696E6D982BDF030E1F6EE2EF17F06984A4
:1023F00069986D82E7EF17F0689CECEF17F0ADC0BD
:1024000020F0120020681200AB6B265027102DE040
:10241000AB513F082AE31D5005E0020A09E0010A1A
:102420000DE011D023C003F0225091DEAC6F0BD031
:1024300023C003F02250DBDEAC6F05D023C003F0D5
:102440002250C4DEAC6F222AD8B4232A2650D8B436
:1024500027062606AB51AB2B580FE96E040EEA6E29
:10246000D8B0EA2AACC0EFFFD0D72650271004E13D
:10247000AB51400801E01A6AABC0ADF0C0DF1200FA
:10248000AA6B236A226A1D6A04011B51010A00011A
:1024900007E0030A0BE0010A0DE0220A25E03DD027
:1024A000276A120E266E030E1D6E39D0276A430E60
:1024B000266E35D0020E1D6EAA6B04011A51000162
:1024C000AA5D09E223C003F0225091DE2226000E0D
:1024D0002322AA2BF2D723C003F0225088DE036AFE
:1024E000266E03C027F01BD0036A04011A510001B5
:1024F00061DE036A226E03C023F0223C02D0235225
:102500000AE023C003F0225022DE036A266E03C0D5
:1025100027F005D002D076DF11D074DF0FD0040190
:102520001F5308E1275203E126501E5D03E2276A8C
:102530001EC426F0010E1A6E000166DFC6EF13F00E
:10254000AA5304E1040E1F6EF9DECBD0050E1F6EF8
:10255000040EAD6F980EAC6F010EAB6FAB510F0850
:10256000D8A0BFD0ABC0B3F0B9DEAE6B036AAB513D
:10257000AEDDFF085BE0040EAE6FD890AB35036AAA
:10258000CEDD0900F5CF03F0AF6F03C0B0F0BA6B3A
:10259000ABC0B9F0BC6B080EBB6F91DE01C0B2F0EE
:1025A000010E0124016E000E0220036E01C0E9FF3E
:1025B000040E0324EA6EAFC0EFFFBA6BABC0B9F0F4
:1025C000BC6B080EBB6F7BDE01C0B2F0020E0124B3
:1025D000016E000E0220036E01C0E9FF040E032409
:1025E000EA6EADC0ECFFED52ACC0EFFFD890AB355A
:1025F000036A95DD0900F5CF03F0AC270350AD2346
:10260000880EB16FB0A101D0B181B0A301D0B18368
:10261000BA6BABC0B9F0BC6B080EBB6F50DE01C02B
:10262000E9FF040E0224EA6EB1C0EFFF036AAB516A
:102630003EDDFF0840E0AE83BA6BABC0B9F0BC6BC7
:10264000080EBB6F3CDE02C0B3F001C0B2F0040E56
:10265000B227000EB323020EB225016E000EB32185
:10266000036E01C0E9FF040E0324EA6EADC0ECFF67
:10267000ED52ACC0EFFFD890AB35036A38DD0900EE
:10268000F5CF03F0AC270350AD23BA6BABC0B9F064
:10269000BC6B080EBB6F13DE02C0B3F001C0B2F01A
:1026A000040EB227000EB323B2C0E9FF040EB32517
:1026B000EA6E400EEF6EAE51060802E10E0EAE6FEE
:1026C000036AAB51F4DC010801E0AE89036AAB5147
:1026D000700FE96E0F0E0320EA6EAEC0EFFFAB2B5A
:1026E0003DD7C0EF13F004011951000A00010DE0BD
:1026F000010A14E0020A1FE0060A29E0030A2EE09C
:102700000E0A2EE0010A32E040D01CC058F4040149
:10271000596B020E0001AD6F72DE38D004011A2D24
:1027200007D0010E1C160001AD6B69DE03D0040159
:10273000000168DE2BD004011A2D06D01C82000196
:10274000AD6B5DDE03D0040100015CDE1FD0020E24
:102750001A6E1AC421F0AD6B52DE18D091D616D085
:102760001BC058F4010EAD6F4ADE10D004011A519F
:10277000010809E31AC41BF01AC4AAF00001E0D64C
:10278000AD6B3DDE0401000101D03CDE41EF15F0F0
:102790001BC0AAF004011951000A000105E00A0A51
:1027A0000BE0010A26E037D00401586B596B020E8A
:1027B0000001AD6F24DE30D0AA5319E0010EAA5DEE
:1027C000036AEFDC016E04011C5DD8A002D0000199
:1027D0000ED0036A1C51280FE96E000E0320EA6E2A
:1027E000EFCF58F4010E0001AD6F09DE01D00ADE13
:1027F00013D0AA530EE0036A04011C51280FE96E9E
:10280000000E0320EA6E1AC4EFFF0001AD6BF7DD86
:1028100001D0F8DD01D0F6DD41EF15F0AB91AABF94
:10282000AB81AA9FABA117D0BA6BAAC0B9F0BC6BA1
:10283000080EBB6F44DD02C0ADF001C0ACF0040E69
:10284000AC27000EAD23ACC0E9FF040EAD25EA6E47
:10285000880EEF6E0DD0BA6BAAC0B9F0BC6B080E33
:10286000BB6F2DDD01C0E9FF040E0224EA6EEF6AA2
:10287000036AAA51700F016E0F0E032201C0E9FF17
:1028800003C0EAFFEF90B9EF14F0AB91AABFAB81A0
:10289000AA9FABA117D0BA6BAAC0B9F0BC6B080E47
:1028A000BB6F0DDD02C0ADF001C0ACF0040EAC2773
:1028B000000EAD23ACC0E9FF040EAD25EA6E840E18
:1028C000EF6E0ED0BA6BAAC0B9F0BC6B080EBB6F2E
:1028D000F6DC01C0E9FF040E0224EA6E840EEF6EFE
:1028E000BFEF14F0AB91AABFAB81AA9FABA117D0E9
:1028F000BA6BAAC0B9F0BC6B080EBB6FE0DC02C0BB
:10290000AEF001C0ADF0040EAD27000EAE23ADC099
:10291000E9FF040EAE25EA6EEFCFACF00ED0BA6B35
:10292000AAC0B9F0BC6B080EBB6FC9DC01C0E9FFDF
:10293000040E0224EA6EEFCFACF0ACAF02D0ACB51F
:1029400002D0000E01D0010E016EC9EF14F01CC4BC
:10295000B4F094DC015228E004011951010A00018D
:1029600005E0020A09E0030A0DE01DD01CC4AAF02C
:1029700055D7AD6B44DD18D01CC4AAF086D7AD6B1B
:102980003EDD12D00401586B596B1CC4AAF0000143
:10299000A9D7015204E0010E0401586F0001020E94
:1029A000AD6F2DDD01D02EDD41EF15F0FE0E206E56
:1029B000120004011C2D01D002D01C5348E1195112
:1029C000000A00010BE0010A0DE0210A1CE0010AE7
:1029D0001FE0030A2EE0010A31E037D0010E7F6FBD
:1029E000E5DF34D0040EEA6E580EE96EE26A330E6B
:1029F000E16E080E016EE6CFEEFF012EFCD71EC47D
:102A0000ADF0FDDC23D0020E7F6F7D81CFDF1ED0C5
:102A1000040EEA6E580EE96EE26A2A0EE16E070EA7
:102A2000016EE6CFEEFF012EFCD7070EAD6FE7DC9F
:102A30000DD01AC47EF0AD6BE2DC08D01AC432F0BF
:102A40001BC431F0AD6BDBDC01D0DCDC0401000128
:102A500041EF15F01A6A040118517F0B000A0001BA
:102A600007E0010A07E0030A07E0230A07E008D0AD
:102A70003AD607D08DD605D06AD703D09AD701D0E1
:102A8000C1DC7BEF17F0BA6BABC0B9F0BC6B080EC2
:102A9000BB6F15DC01C0E9FF040E0224EA6EEFCF24
:102AA000ADF0AC51020806E1ADAD02D0AC6B02D086
:102AB000010EAC6FAC5103081AE1840EAD6FBA6B16
:102AC000ABC0B9F0BC6B080EBB6F5FEC11F002C07D
:102AD000B1F001C0B0F0040EB027000EB123B0C0B9
:102AE000E9FF040EB125EA6E840EEF6E07D0AC2D1F
:102AF00003D0C80EAD6F02D0880EAD6FD890AB3545
:102B0000036A8FEC10F00900F5CF03F0AE6F03C03D
:102B1000AFF0BA6BABC0B9F0BC6B080EBB6F5FEC2B
:102B200011F001C0B0F0010E0124016E000E022070
:102B3000036E01C0E9FF040E0324EA6EAEC0EFFF8E
:102B4000AFA101D0AD81AFA301D0AD83BA6BABC053
:102B5000B9F0BC6B080EBB6F5FEC11F001C0E9FF70
:102B6000040E0224EA6EADC0EFFF1200036AB851F2
:102B7000700FE96E0F0E0320EA6EEF5219E0BA6B88
:102B8000B8C0B9F0BC6B080EBB6F5FEC11F002C0AF
:102B9000BAF001C0B9F0040EB927000EBA23B9C0CB
:102BA000E9FF040EBA25EA6EEFCFBBF0BBAF02D04F
:102BB000000E01D0010E016E1200B3C0B8F0D6DFD6
:102BC0000152D8B48FD0BA6BB3C0B9F0BC6B080E49
:102BD000BB6F5FEC11F002C0B9F001C0B8F0040E99
:102BE000B827000EB923010EB825016E000EB921D9
:102BF000036E01C0E9FF040E0324EA6EB4C0EFFFC8
:102C0000B65102081EE1BA6BB3C0B9F0BC6B080E36
:102C1000BB6F5FEC11F002C0B9F001C0B8F0040E58
:102C2000B827000EB923B8C0E9FF040EB925EA6E33
:102C3000EFCFB7F0B7AD02D0B66B02D0010EB66FD2
:102C400018D0B651040815E1BA6BB3C0B9F0BC6B2B
:102C5000080EBB6F5FEC11F001C0E9FF040E022407
:102C6000EA6EEFCFB7F0B7AD03D0010EB66F01D06B
:102C7000B66BB62D03D0480EB76F02D0080EB76FF3
:102C8000BA6BB3C0B9F0BC6B080EBB6F5FEC11F050
:102C900002C0B9F001C0B8F0040EB827000EB92385
:102CA000B8C0E9FF040EB925EA6EB7C0EFFFBA6BF2
:102CB000B3C0B9F0BC6B080EBB6F5FEC11F002C083
:102CC000B9F001C0B8F0040EB827000EB923B8C09F
:102CD000E9FF040EB925EA6EEF508009EF6E010E90
:102CE000016E02D0000E016E12007F51010A03E056
:102CF000030A13E024D0EA6A330EE96E040EE26E92
:102D0000180EE16E080E016EE6CFEEFF012EFCD725
:102D1000AD6BFFEC11F07F6B13D0EA6A2A0EE96EFF
:102D2000040EE26E180EE16E070E016EE6CFEEFFA6
:102D3000012EFCD77F6BAD6BFFEC11F001D07F6BE8
:102D4000D6EF16F0BA6BABC0B9F0BC6B080EBB6F18
:102D50005FEC11F002C0ADF001C0ACF0010E012437
:102D6000016E000E0220036E01C0E9FF040E032471
:102D7000EA6E036AEFCF01F003C002F0CCEF16F069
:102D80007A91020EAB6FAC6F7EDED1EF16F07A81D6
:102D90007C6B020EAB6FD6D701C07BF07B5301E199
:102DA000EFD7DBEF16F0AA5302E19FD704D0AA5168
:102DB000020801E1ECD71200ABC06EFFAB5303E099
:102DC000040E1F6E02D0020E1F6EECEF16F01B6A8F
:102DD0001A6A21C0ABF0F0D75AEF17F0ABC0B8F0C9
:102DE000C5DE015243E0BA6BABC0B9F0BC6B080E54
:102DF000BB6F5FEC11F002C0B4F001C0B3F0040E81
:102E0000B327000EB423020EB325016E000EB421C9
:102E1000036E01C0E9FF040E0324EA6EECCFB2F0AA
:102E2000ED52EFCFB1F0B2C0EAFFB1C0E9FFADC0E3
:102E3000E2FFACC0E1FFAFC002F0AEC001F0015252
:102E400002E0022A02D0025206E0E6CFEEFF012E97
:102E5000FCD7022EFAD7ABC0B3F0AFC0B5F0AEC00E
:102E6000B4F0B0C0B6F0A9DE015002D0000E016E81
:102E700047EF17F024520EE0020EAB6FAD6B3B0E26
:102E8000AC6FAF6B24C0AEF0020EB06FA7D701528B
:102E900001E0246A4DEF17F0EDD75FEF17F0AA536A
:102EA0000AE11A2C03D004EC12F004D01A500208E4
:102EB000D8B48DD704D0AA51020801E1EDD7120091
:102EC0001E30A86FA833A8331F0EA8171E5241E169
:102ED000040100513C0B0001A96F430E04010017CF
:102EE0000001A95134081EE104010451800B01E0E6
:102EF000046B0001AFD56D98203C05D0AB6B030E81
:102F0000AC6FC1DD0ED0AB6B020EAC6FBCDD2050E0
:102F1000FE0807E0B36BB56B20C0B4F0040EB66FCB
:102F20004CDE16D0A951040813E1AA6B3CDFAB6B51
:102F3000020EAC6FA8DD2050FE080AE0203C01D054
:102F400007D0B36BB56B20C0B4F0010EB66F35DEA1
:102F50001AD01E5004080EE12068AA6BA0DF203CA6
:102F600001D007D0B36BB56B20C0B4F0020EB66FC2
:102F700024DE09D01EB404D0A8C0AAF014DF03D008
:102F8000A8C0AAF08CDFF6EF17F0A19A1F52D8B4B0
:102F900033D06852D8B430D068A403D069B415EFE8
:102FA00011F06DB229D068AA03D069BA33EF11F0DD
:102FB00068A203D069B23AEF11F068A003D069B0FB
:102FC000DFEF11F068A803D069B8F7EF11F068AC33
:102FD00003D069BCFCEF11F0A76B68A608D069A606
:102FE00006D06CCF1EF0DDEC11F06AD701D004D012
:102FF000A751A72B0308F1E230EF10F041540D0A5E
:10300000000041542B4349504D55583D310D0A00A5
:1030100041542B43495053544152543D302C225477
:103020004350222C223138342E3130362E31353374
:103030002E313439222C38300D0A000041542B43F4
:10304000495053454E443D302C3130300D0A00007C
:10305000474554202F7570646174653F6170695FE6
:103060006B65793D344E5A5750535344333653545D
:1030700051485732266669656C64313D252E3166AC
:10308000266669656C64323D252E31660A006D92B4
:103090006D6A696A080E6F6E94503009946E1F6AEB
:1030A000196AF2BE198EF29EC7EC11F019BEF28EAB
:1030B0005BEF18F0ECD787EF18F0196AF2BE198EA3
:1030C000F29EC7EC11F019BEF28E6D926D6A6D8C96
:1030D00000D000D000006D9C140E6F6E696A6D8682
:1030E000010E1F6E77EF18F06DB601D0E6D71F2CDA
:1030F0000BD06DBA09D0686A696AA08AC00EF21254
:10310000110E696E020E1F6E88EF18F0D3D7ECD740
:103110001F500208FCE194EF18F01B5202E104007A
:10312000FCD795EF18F0F2D7F8D7F6EF1AF0EA6A65
:103130008E0EE96EEF500EE00F0E016E006A002E4B
:10314000FED7012EFBD78F0E006E002EFED700009B
:10315000EF2EF2D712000900F5520DE0F6CF8DF0F8
:10316000F7CF8EF0F5509EA8FED7AD6E8DC0F6FF5E
:103170008EC0F7FFF0D712000900F6CF8EF0F7CF20
:103180008FF0F5509EA8FED7AD6E8EC0F6FF8FC0B3
:10319000F7FF8D2FF1D712009A51D8B471D0006E7D
:1031A0009E51D8B46DD0002604E3810E002668E25B
:1031B00004D07F0E005E64E363E09BC0A2F09F51E9
:1031C000A21B9B8F9F8F9D51A103F4CFA4F09C5114
:1031D000A003F4CF03F0F3CFA3F0A103F350A4278F
:1031E000F450A323000E03229D51A003F350A42703
:1031F000F450A323000E026A032202229B51A10372
:10320000F350A327F4500322000E02229B51A00387
:10321000F3500326F4500222000E016A01229D5150
:103220009F03F350A327F4500322000E0222012231
:103230009C519F03F3500326F4500222000E0122FA
:103240009B519F03F3500226F4500122002A01BE35
:1032500005D0A3370336023601360006000EA3AFB1
:103260000AD0032A02220122015005E1025003E1A3
:10327000035001E1002AA2BF018EA2AF019E04D03B
:10328000006A016A026A036AC1EF19F09A51B6082E
:103290009A6F036A9BC09EF09B8FD8909B339C33A0
:1032A0009D3303320232013200329A2FF6D79EAF9D
:1032B0000BD0001E011E021E031E002AD8B4012AD4
:1032C000D8B4022AD8B4032AD4EF19F0D8B203D064
:1032D000EA6AA20EE96E006A016A026A036AA26BD8
:1032E000A36BA46BA56BA151A0119F119E112CE0A3
:1032F000200EA66FD8909A379B379C379D37A23700
:10330000A337A437A537A151A55D08E1A051A45D5D
:1033100005E19F51A35D02E19E51A25D0FE39E5125
:10332000A25F9F51D8A09F3DA35FA051D8A0A03D10
:10333000A45FA151D8A0A13DA55FD8800036013679
:1033400002360336A62FD6D7A2C0EFFFA3C0ECFFEC
:10335000A4C0ECFFA5C0ECFF1200E950926F9151A0
:10336000946F19E090C09DF08FC09CF08EC09BF0D0
:103370008DC09AF0A16BA06B200E9F6F820E9E6F86
:103380000BD703C090F002C08FF001C08EF000C0D8
:103390008DF0942FE7D790C09DF08FC09CF08EC029
:1033A0009BF08DC09AF072D703C090F002C08FF0EE
:1033B00001C08EF000C08DF090AF0DD09207928BBF
:1033C0008D1F8E1F8F1F901F8D2BD8B48E2BD8B4BE
:1033D0008F2BD8B4902B3B0E996F9A0E986FCA0E14
:1033E000976F966B0A0E946F9151D8B4922BD88236
:1033F000EA6A8D0EE96E90C09DF08FC09CF08EC081
:103400009BF08DC09AF099C0A1F098C0A0F097C031
:103410009FF096C09EF05ADF015000520FE19129B3
:10342000945D0CE092510CE00F0B945D01E03BE2E7
:1034300092BF39D092BD04D0200E30D0200E92170A
:1034400092AB0DD0929B9151D8A492070050926FED
:103450002D0E9EA8FED7AD6E9251006E926B9151CB
:10346000945D0BE10050926F2E0E9EA8FED7AD6EBC
:103470009251006E200E9217000E300E92AB0ED0BD
:10348000929B9151D8A492070050926F2D0E9EA846
:10349000FED7AD6E9251006E926B300E002600503A
:1034A0009EA8FED7AD6ED89299C09DF098C09CF0B2
:1034B00097C09BF096C09AF0A16BA06B9F6B0A0E11
:1034C0009E6F04DF03C099F002C098F001C097F02E
:1034D00000C096F0942F8BD71200660E886F876F0E
:1034E0001B0E866F850E856F330E8C6F8B6F050EEE
:1034F0008A6F850E896FFC0EF66E2F0EF76E2BDE2F
:10350000040E8D6FFA0E8E6F12DE8D2FFBD7020E1A
:10351000F66E300EF76E1FDE040E8D6FFA0E8E6F94
:1035200006DE8D2FFBD7100EF66E300EF76E13DE13
:10353000040E8D6FFA0E8E6FFADD8D2FFBD73C0EC9
:10354000F66E300EF76E07DE040E8D6FFA0E8E6F7C
:10355000EEDD8D2FFBD7500EF66E300EF76E2C0E73
:103560008D6F0ADE890EE96E88C090F087C08FF0FB
:1035700086C08EF085C08DF0010E916FEEDE800E5C
:10358000F66E300EF76E080E8D6FF6DD890EE96E61
:103590008CC090F08BC08FF08AC08EF089C08DF007
:1035A000010E916FDADE0A0E9EA8FED7AD6E040EF4
:1035B0008D6FFA0E8E6FBBDD8D2FFBD701EF1BF0E9
:1035C000F86AD09E078E806BB896190EAF6EA60E65
:1035D000AC6E900EAB6E846B836BC150C00B0F0949
:1035E000C16E070EB46E816B826B9DD5C80E8E6F57
:1035F0009EDD140E856FFA0E8E6F99DD852FFBD739
:063600006CD7F7D70300B0
:020000040030CA
:0E00000024CE3E1E0085A1000FC00FE00F4071
:00000001FF
;PIC18F4550
;CRC=A98B  CREATED="20-Jul-22 23:49"
