:0420000027EF19F0BD
:08200800046ED8CF05F0E0CF13
:1020100006F00001E9CF0CF0EACF07F0E1CF08F0BD
:10202000E2CF09F0D9CF0AF0DACF0BF0F3CF12F0FC
:10203000F4CF13F0FACF14F0F5CF15F0F6CF16F079
:10204000F7CF17F000C00EF001C00FF002C010F083
:1020500003C011F0A0AA30EF10F0A1BAC3EF17F03F
:102060000EC000F00FC001F010C002F011C003F06C
:102070000CC0E9FF07C0EAFF078E08C0E1FF09C0F6
:10208000E2FF0AC0D9FF0BC0DAFF12C0F3FF13C092
:10209000F4FF14C0FAFF15C0F5FF16C0F6FF17C015
:1020A000F7FF045006C0E0FF05C0D8FF1000F76A34
:1020B000BE0FF66E200EF7220900F5501200000345
:1020C00002FFFFFFFFFFFFFFFFFFFFFFFFFFF76ABA
:1020D000DE0FF66E200EF7220900F550120000FF09
:1020E00002FFFFFFFFFFFFFFFFFFFFFFFFFFF76A9A
:1020F000FE0FF66E200EF7220900F5501200400088
:102100000B00400000000000000000000000000084
:102110000000000000000000000000000000F76A5E
:102120002E0FF66E210EF7220900F5501200400026
:10213000000040000000000000000000000000005F
:102140000000000000000000000000000000F76A2E
:102150005E0FF66E210EF7220900F55012000902FB
:102160004300020100803209040000010202010064
:1021700005240010010424020205240600010524A0
:10218000010001070581030B00FA09040100020A9E
:10219000000000070502024000010705820240001E
:1021A0000100F76AB20FF66E210EF7220900F55012
:1021B00012000200F76AC40FF66E210EF722090022
:1021C000F550120012171B20FFFFFFFFF76ADC0F0C
:1021D000F66E210EF7220900F550120012011001CF
:1021E00002000040D8040200000101020001F76A69
:1021F000FE0FF66E210EF7220900F55012000403BF
:102200000904080343004300530020034300430034
:1022100053002000550053004200200074006F005E
:10222000200055004100520054006D92699468A44A
:1022300002D06894FCD76898CFEF17F0400E0401E5
:10224000016F040E0001A26F180EA2C003F4E8CFC4
:1022500002F4880E0401006F046B040E076F580E21
:10226000066F0001120070A002D0E8DF7090689A3B
:10227000D6EF17F06A6A6892DBEF17F0AE91ADBF48
:10228000AE81AD9FAD51100803E2000E016E16D075
:10229000AEA10BD0036AAD510ADFFF0802E1000EC8
:1022A00001D0010E016E0AD009D0036AAD510FDFD3
:1022B000FF0802E1000E01D0010E016E1200B251C2
:1022C000B403F3CF01F0F4CF00F0B503F3500026D0
:1022D000B351B403F3500020026E1200036AAC51F4
:1022E000700FE96E0F0E0320EA6EEF6AACC0ADF01E
:1022F000C5DF015222E0B36BACC0B2F0B56B080E83
:10230000B46FDDDF01C0E9FF040E0224EA6EEF6A5C
:10231000B36BACC0B2F0B56B080EB46FD0DF02C0C7
:10232000AEF001C0ADF0040EAD27000EAE23ADC07F
:10233000E9FF040EAE25EA6EEF6A1200010EAB6FE4
:10234000AB510F0805E3ABC0ACF0C8DFAB2BF8D73F
:102350001200A56BA46B250EA36F800EA26FA2C006
:102360002AF0A3C02BF02C6A2D6AA26BA2C02EF01B
:10237000A26BA2C02FF0080EA26FA2C030F07E6B3D
:102380007D91326A316A246A7A917F6B1200276AE2
:10239000266AA16BA15101080AE3036AA151280F23
:1023A000E96E000E0320EA6EEF6AA12BF3D7D1DFAE
:1023B0001B6A010E1C6E1A6A1200689612006B6A84
:1023C000696A6A6A686A6E6A706AB8DFE0DF160E68
:1023D000706E68A602D0F1DFFCD79F0E6B6E3D0ECB
:1023E000696E6D982BDF030E1F6EE0EF17F06984A6
:1023F00069986D82E5EF17F0689CEAEF17F0A6C0C8
:1024000020F0120020681200A46B265027102DE047
:10241000A4513F082AE31D5005E0020A09E0010A21
:102420000DE011D023C003F0225091DEA56F0BD038
:1024300023C003F02250DBDEA56F05D023C003F0DC
:102440002250C4DEA56F222AD8B4232A2650D8B43D
:1024500027062606A451A42B580FE96E040EEA6E37
:10246000D8B0EA2AA5C0EFFFD0D72650271004E144
:10247000A451400801E01A6AA4C0A6F0C0DF12000F
:10248000A36B236A226A1D6A04011B51010A000121
:1024900007E0030A0BE0010A0DE0220A25E03DD027
:1024A000276A120E266E030E1D6E39D0276A430E60
:1024B000266E35D0020E1D6EA36B04011A51000169
:1024C000A35D09E223C003F0225091DE2226000E14
:1024D0002322A32BF2D723C003F0225088DE036A05
:1024E000266E03C027F01BD0036A04011A510001B5
:1024F00061DE036A226E03C023F0223C02D0235225
:102500000AE023C003F0225022DE036A266E03C0D5
:1025100027F005D002D076DF11D074DF0FD0040190
:102520001F5308E1275203E126501E5D03E2276A8C
:102530001EC426F0010E1A6E000166DFC6EF13F00E
:10254000A35304E1040E1F6EF9DECBD0050E1F6EFF
:10255000040EA66F980EA56F010EA46FA4510F086C
:10256000D8A0BFD0A4C0ACF0B9DEA76B036AA45159
:10257000AEDDFF085BE0040EA76FD890A435036AB8
:10258000CEDD0900F5CF03F0A86F03C0A9F0B36B4F
:10259000A4C0B2F0B56B080EB46F91DE01C0ABF011
:1025A000010E0124016E000E0220036E01C0E9FF3E
:1025B000040E0324EA6EA8C0EFFFB36BA4C0B2F010
:1025C000B56B080EB46F7BDE01C0ABF0020E0124C8
:1025D000016E000E0220036E01C0E9FF040E032409
:1025E000EA6EA6C0ECFFED52A5C0EFFFD890A4356F
:1025F000036A95DD0900F5CF03F0A5270350A62354
:10260000880EAA6FA9A101D0AA81A9A301D0AA838B
:10261000B36BA4C0B2F0B56B080EB46F50DE01C04E
:10262000E9FF040E0224EA6EAAC0EFFF036AA45178
:102630003EDDFF0840E0A783B36BA4C0B2F0B56BEA
:10264000080EB46F3CDE02C0ACF001C0ABF0040E6B
:10265000AB27000EAC23020EAB25016E000EAC21A1
:10266000036E01C0E9FF040E0324EA6EA6C0ECFF6E
:10267000ED52A5C0EFFFD890A435036A38DD0900FC
:10268000F5CF03F0A5270350A623B36BA4C0B2F087
:10269000B56B080EB46F13DE02C0ACF001C0ABF036
:1026A000040EAB27000EAC23ABC0E9FF040EAC2533
:1026B000EA6E400EEF6EA751060802E10E0EA76FFC
:1026C000036AA451F4DC010801E0A789036AA4515C
:1026D000700FE96E0F0E0320EA6EA7C0EFFFA42B68
:1026E0003DD7C0EF13F004011951000A00010DE0BD
:1026F000010A14E0020A1FE0060A29E0030A2EE09C
:102700000E0A2EE0010A32E040D01CC058F4040149
:10271000596B020E0001A66F72DE38D004011A2D2B
:1027200007D0010E1C160001A66B69DE03D0040160
:10273000000168DE2BD004011A2D06D01C82000196
:10274000A66B5DDE03D0040100015CDE1FD0020E2B
:102750001A6E1AC421F0A66B52DE18D091D616D08C
:102760001BC058F4010EA66F4ADE10D004011A51A6
:10277000010809E31AC41BF01AC4A3F00001E0D653
:10278000A66B3DDE0401000101D03CDE41EF15F0F7
:102790001BC0A3F004011951000A000105E00A0A58
:1027A0000BE0010A26E037D00401586B596B020E8A
:1027B0000001A66F24DE30D0A35319E0010EA35D03
:1027C000036AEFDC016E04011C5DD8A002D0000199
:1027D0000ED0036A1C51280FE96E000E0320EA6E2A
:1027E000EFCF58F4010E0001A66F09DE01D00ADE1A
:1027F00013D0A3530EE0036A04011C51280FE96EA5
:10280000000E0320EA6E1AC4EFFF0001A66BF7DD8D
:1028100001D0F8DD01D0F6DD41EF15F0A491A3BFA2
:10282000A481A39FA4A117D0B36BA3C0B2F0B56BD2
:10283000080EB46F44DD02C0A6F001C0A5F0040E7E
:10284000A527000EA623A5C0E9FF040EA625EA6E63
:10285000880EEF6E0DD0B36BA3C0B2F0B56B080E4F
:10286000B46F2DDD01C0E9FF040E0224EA6EEF6AA9
:10287000036AA351700F016E0F0E032201C0E9FF1E
:1028800003C0EAFFEF90B9EF14F0A491A3BFA481B5
:10289000A39FA4A117D0B36BA3C0B2F0B56B080E71
:1028A000B46F0DDD02C0A6F001C0A5F0040EA5278F
:1028B000000EA623A5C0E9FF040EA625EA6E840E2D
:1028C000EF6E0ED0B36BA3C0B2F0B56B080EB46F51
:1028D000F6DC01C0E9FF040E0224EA6E840EEF6EFE
:1028E000BFEF14F0A491A3BFA481A39FA4A117D00C
:1028F000B36BA3C0B2F0B56B080EB46FE0DC02C0DE
:10290000A7F001C0A6F0040EA627000EA723A6C0BC
:10291000E9FF040EA725EA6EEFCFA5F00ED0B36B4A
:10292000A3C0B2F0B56B080EB46FC9DC01C0E9FFFB
:10293000040E0224EA6EEFCFA5F0A5AF02D0A5B534
:1029400002D0000E01D0010E016EC9EF14F01CC4BC
:10295000ADF094DC015228E004011951010A000194
:1029600005E0020A09E0030A0DE01DD01CC4A3F033
:1029700055D7A66B44DD18D01CC4A3F086D7A66B30
:102980003EDD12D00401586B596B1CC4A3F000014A
:10299000A9D7015204E0010E0401586F0001020E94
:1029A000A66F2DDD01D02EDD41EF15F0FE0E206E5D
:1029B000120004011C2D01D002D01C5348E1195112
:1029C000000A00010BE0010A0DE0210A1CE0010AE7
:1029D0001FE0030A2EE0010A31E037D0010E7F6FBD
:1029E000E5DF34D0040EEA6E580EE96EE26A330E6B
:1029F000E16E080E016EE6CFEEFF012EFCD71EC47D
:102A0000A6F0FDDC23D0020E7F6F7D81CFDF1ED0CC
:102A1000040EEA6E580EE96EE26A2A0EE16E070EA7
:102A2000016EE6CFEEFF012EFCD7070EA66FE7DCA6
:102A30000DD01AC47EF0A66BE2DC08D01AC432F0C6
:102A40001BC431F0A66BDBDC01D0DCDC040100012F
:102A500041EF15F01A6A040118517F0B000A0001BA
:102A600007E0010A07E0030A07E0230A07E008D0AD
:102A70003AD607D08DD605D06AD703D09AD701D0E1
:102A8000C1DC79EF17F0B36BA4C0B2F0B56B080EE0
:102A9000B46F15DC01C0E9FF040E0224EA6EEFCF2B
:102AA000A6F0A551020806E1A6AD02D0A56B02D0A2
:102AB000010EA56FA55103081AE1840EA66FB36B32
:102AC000A4C0B2F0B56B080EB46F5FEC11F002C099
:102AD000AAF001C0A9F0040EA927000EAA23A9C0DC
:102AE000E9FF040EAA25EA6E840EEF6E07D0A52D2D
:102AF00003D0C80EA66F02D0880EA66FD890A4355A
:102B0000036A8FEC10F00900F5CF03F0A76F03C044
:102B1000A8F0B36BA4C0B2F0B56B080EB46F5FEC55
:102B200011F001C0A9F0010E0124016E000E022077
:102B3000036E01C0E9FF040E0324EA6EA7C0EFFF95
:102B4000A8A101D0A681A8A301D0A683B36BA4C07D
:102B5000B2F0B56B080EB46F5FEC11F001C0E9FF85
:102B6000040E0224EA6EA6C0EFFF1200036AB15100
:102B7000700FE96E0F0E0320EA6EEF5219E0B36B8F
:102B8000B1C0B2F0B56B080EB46F5FEC11F002C0CB
:102B9000B3F001C0B2F0040EB227000EB323B2C0EE
:102BA000E9FF040EB325EA6EEFCFB4F0B4AF02D064
:102BB000000E01D0010E016E1200ACC0B1F0D6DFE4
:102BC0000152D8B48FD0B36BACC0B2F0B56B080E65
:102BD000B46F5FEC11F002C0B2F001C0B1F0040EAE
:102BE000B127000EB223010EB125016E000EB221F5
:102BF000036E01C0E9FF040E0324EA6EADC0EFFFCF
:102C0000AF5102081EE1B36BACC0B2F0B56B080E59
:102C1000B46F5FEC11F002C0B2F001C0B1F0040E6D
:102C2000B127000EB223B1C0E9FF040EB225EA6E4F
:102C3000EFCFB0F0B0AD02D0AF6B02D0010EAF6FEE
:102C400018D0AF51040815E1B36BACC0B2F0B56B4E
:102C5000080EB46F5FEC11F001C0E9FF040E02240E
:102C6000EA6EEFCFB0F0B0AD03D0010EAF6F01D080
:102C7000AF6BAF2D03D0480EB06F02D0080EB06F0F
:102C8000B36BACC0B2F0B56B080EB46F5FEC11F073
:102C900002C0B2F001C0B1F0040EB127000EB223A1
:102CA000B1C0E9FF040EB225EA6EB0C0EFFFB36B0E
:102CB000ACC0B2F0B56B080EB46F5FEC11F002C09F
:102CC000B2F001C0B1F0040EB127000EB223B1C0C2
:102CD000E9FF040EB225EA6EEF508009EF6E010E97
:102CE000016E02D0000E016E12007F51010A03E056
:102CF000030A13E024D0EA6A330EE96E040EE26E92
:102D0000180EE16E080E016EE6CFEEFF012EFCD725
:102D1000A66BFFEC11F07F6B13D0EA6A2A0EE96E06
:102D2000040EE26E180EE16E070E016EE6CFEEFFA6
:102D3000012EFCD77F6BA66BFFEC11F001D07F6BEF
:102D4000D6EF16F0B36BA4C0B2F0B56B080EB46F3B
:102D50005FEC11F002C0A6F001C0A5F0010E012445
:102D6000016E000E0220036E01C0E9FF040E032471
:102D7000EA6E036AEFCF01F003C002F0CCEF16F069
:102D80007A91020EA46FA56F7EDED1EF16F07A81E4
:102D90007C6B020EA46FD6D701C07BF07B5301E1A0
:102DA000EFD7DBEF16F0A35302E19FD704D0A35176
:102DB000020801E1ECD71200A4C06EFFA45303E0A7
:102DC000040E1F6E02D0020E1F6EECEF16F01B6A8F
:102DD0001A6A21C0A4F0F0D758EF17F0A4C0B1F0E0
:102DE000C5DE015243E0B36BA4C0B2F0B56B080E70
:102DF000B46F5FEC11F002C0ADF001C0ACF0040E96
:102E0000AC27000EAD23020EAC25016E000EAD21E5
:102E1000036E01C0E9FF040E0324EA6EECCFABF0B1
:102E2000ED52EFCFAAF0ABC0EAFFAAC0E9FFA6C0FF
:102E3000E2FFA5C0E1FFA8C002F0A7C001F0015267
:102E400002E0022A02D0025206E0E6CFEEFF012E97
:102E5000FCD7022EFAD7A4C0ACF0A8C0AEF0A7C031
:102E6000ADF0A9C0AFF0A9DE015002D0000E016E96
:102E7000120024520EE0020EA46FA66B3B0EA56F4B
:102E8000A86B24C0A7F0020EA96FA8DF015201E0D1
:102E9000246A1200EEDF5DEF17F0A3530AE11A2C4B
:102EA00003D004EC12F004D01A500208D8B48FD723
:102EB00004D0A351020801E1EDD712001E30A16F2A
:102EC000A133A1331F0EA1171E5241E1040100518D
:102ED0003C0B0001A26F430E040100170001A25138
:102EE00034081EE104010451800B01E0046B000171
:102EF000B1D56D98203C05D0A46B030EA56FC3DD42
:102F00000ED0A46B020EA56FBEDD2050FE0807E0B8
:102F1000AC6BAE6B20C0ADF0040EAF6F4EDE16D0C2
:102F2000A251040813E1A36B3EDFA46B020EA56F50
:102F3000AADD2050FE080AE0203C01D007D0AC6B8F
:102F4000AE6B20C0ADF0010EAF6F37DE1AD01E5051
:102F500004080EE12068A36BA0DF203C01D007D05D
:102F6000AC6BAE6B20C0ADF0020EAF6F26DE09D0A9
:102F70001EB404D0A1C0A3F016DF03D0A1C0A3F0FB
:102F80008CDFF4EF17F0A19A1F52D8B433D06852F7
:102F9000D8B430D068A403D069B415EF11F06DB285
:102FA00029D068AA03D069BA33EF11F068A203D020
:102FB00069B23AEF11F068A003D069B0DFEF11F009
:102FC00068A803D069B8F7EF11F068AC03D069BC0A
:102FD000FCEF11F0A06B68A608D069A606D06CCFF4
:102FE0001EF0DDEC11F06AD701D004D0A051A02B67
:102FF0000308F1E230EF10F0546573743A20254C69
:1030000064200D0A00006D926D6A696A080E6F6E89
:1030100094503009946E1F6A196AF2BE198EF29E9E
:10302000C7EC11F019BEF28E17EF18F0ECD743EF92
:1030300018F0196AF2BE198EF29EC7EC11F019BE93
:10304000F28E6D926D6A6D8C00D000D000006D9C88
:10305000140E6F6E696A6D86010E1F6E33EF18F0E5
:103060006DB601D0E6D71F2C0BD06DBA09D0686AB7
:10307000696AA08AC00EF212110E696E020E1F6EEE
:1030800044EF18F0D3D7ECD71F500208FCE150EF03
:1030900018F01B5202E10400FCD751EF18F0F2D7F0
:1030A000F8D733EF19F0EA6A830EE96EEF500EE0BD
:1030B0000F0E016E006A002EFED7012EFBD78F0E79
:1030C000006E002EFED70000EF2EF2D712008E9178
:1030D000F2BE8E81F29E24503E0802E23E0E246E25
:1030E0002450242A036A3B0FE96E000E0320EA6E87
:1030F0008DC0EFFFF29E8EB1F28E82EF18F08CC081
:103100008DF0E5D7196AF2BE198EF29E020EB16FEC
:103110002DDD19BEF28E015207E0196AF2BE198E3A
:10312000F29EA7DE19BEF28E9DEF18F024503E08E5
:1031300001E2FCD78BC08CF0E2D712000900F6CF79
:1031400083F0F7CF84F0F5CF8BF0F0DF83C0F6FF8C
:1031500084C0F7FF822FF2D71200EACF8AF0E9CFBE
:1031600089F083AF08D0898F89A9892B821F831F9B
:10317000822BD8B4832B8339F009856F8527E20F22
:10318000866F320F886F83510F0B8627862788271B
:10319000E90F876F8727872782390F0B87278827B3
:1031A00087378837881F883782510F0B88278537E4
:1031B000070E846F0A0E87078827FDE38607872797
:1031C000FDE385078627FDE384078527FDE3EA6A9B
:1031D000840EE96E070E8915899DED52891507E168
:1031E00089B9EE5289B903D0200E006E20D0E926AD
:1031F000000EEA22E950880803E1EA5201E1898DD4
:10320000EF50006E08E189BD06D089B91BD089B79F
:1032100002D0200E0BD089AF06D02D0E006EED50DF
:10322000899D899F04D089878999300E0026EACF2D
:1032300083F0E9CF82F000C08BF078DF83C0EAFF33
:1032400082C0E9FFEE5089ADD5D760EF19F0F86A7A
:10325000D09E078E816B806BC150C00B0F09C16E71
:10326000070EB46E1CD7C80E836F1DDFC050C00B95
:103270000709C06EC08EC280C150C00B0E09C16E5E
:10328000000E016EC250C30B0110C26E270E006EFD
:10329000002EFED700D0C282C2B2FED7C3CF80F0CC
:1032A000C4CF81F0F80EF66E2F0EF76E060E826F09
:1032B00045DF100EE96E81C083F080C082F04DD7EB
:1032C000010EF66E300EF76E030E826F37DF8151FE
:1032D000010808E2FF0A03E18051580803E29296D0
:1032E000899602D092968986040E826FFA0E836FB9
:0A32F000DADE822FFBD7C4D70300FB
:020000040030CA
:0E00000024CE3E1E0085A1000FC00FE00F4071
:00000001FF
;PIC18F4550
;CRC=945F  CREATED="13-May-22 17:36"
