:042000008AEF20F053
:08200800046ED8CF05F0E0CF13
:1020100006F00001E9CF0CF0EACF07F0E1CF08F0BD
:10202000E2CF09F0D9CF0AF0DACF0BF0F3CF12F0FC
:10203000F4CF13F0FACF14F0F5CF15F0F6CF16F079
:10204000F7CF17F000C00EF001C00FF002C010F083
:1020500003C011F0A0AA30EF10F0A1BAC5EF17F03D
:102060000EC000F00FC001F010C002F011C003F06C
:102070000CC0E9FF07C0EAFF078E08C0E1FF09C0F6
:10208000E2FF0AC0D9FF0BC0DAFF12C0F3FF13C092
:10209000F4FF14C0FAFF15C0F5FF16C0F6FF17C015
:1020A000F7FF045006C0E0FF05C0D8FF1000F76A34
:1020B000BE0FF66E200EF7220900F5501200000345
:1020C00002FFFFFFFFFFFFFFFFFFFFFFFFFFF76ABA
:1020D000DE0FF66E200EF7220900F550120000FF09
:1020E00002FFFFFFFFFFFFFFFFFFFFFFFFFFF76A9A
:1020F000FE0FF66E200EF7220900F5501200400088
:102100000B00400000000000000000000000000084
:102110000000000000000000000000000000F76A5E
:102120002E0FF66E210EF7220900F5501200400026
:10213000000040000000000000000000000000005F
:102140000000000000000000000000000000F76A2E
:102150005E0FF66E210EF7220900F55012000902FB
:102160004300020100803209040000010202010064
:1021700005240010010424020205240600010524A0
:10218000010001070581030B00FA09040100020A9E
:10219000000000070502024000010705820240001E
:1021A0000100F76AB20FF66E210EF7220900F55012
:1021B00012000200F76AC40FF66E210EF722090022
:1021C000F550120012171B20FFFFFFFFF76ADC0F0C
:1021D000F66E210EF7220900F550120012011001CF
:1021E00002000040D8040200000101020001F76A69
:1021F000FE0FF66E210EF7220900F55012000403BF
:102200000904080343004300530020034300430034
:1022100053002000550053004200200074006F005E
:10222000200055004100520054006D92699468A44A
:1022300002D06894FCD76898D1EF17F0400E0401E3
:10224000016F040E0001CF6F180ECFC003F4E8CF6A
:1022500002F4880E0401006F046B040E076F580E21
:10226000066F0001120070A002D0E8DF7090689A3B
:10227000D8EF17F06A6A6892DDEF17F0DB91DABFEA
:10228000DB81DA9FDA51100803E2000E016E16D0EE
:10229000DBA10BD0036ADA510ADFFF0802E1000E6E
:1022A00001D0010E016E0AD009D0036ADA510FDFA6
:1022B000FF0802E1000E01D0010E016E1200DF5195
:1022C000E103F3CF01F0F4CF00F0E203F350002676
:1022D000E051E103F3500020026E1200036AD9516D
:1022E000700FE96E0F0E0320EA6EEF6AD9C0DAF0C4
:1022F000C5DF015222E0E06BD9C0DFF0E26B080ECF
:10230000E16FDDDF01C0E9FF040E0224EA6EEF6A2F
:10231000E06BD9C0DFF0E26B080EE16FD0DF02C0E6
:10232000DBF001C0DAF0040EDA27000EDB23DAC09E
:10233000E9FF040EDB25EA6EEF6A1200010ED86F8A
:10234000D8510F0805E3D8C0D9F0C8DFD82BF8D78B
:102350001200D26BD16B250ED06F800ECF6FCFC025
:102360002AF0D0C02BF02C6A2D6ACF6BCFC02EF094
:10237000CF6BCFC02FF0080ECF6FCFC030F07E6B89
:102380007D91326A316A246A7A917F6B1200276AE2
:10239000266ACE6BCE5101080AE3036ACE51280F9C
:1023A000E96E000E0320EA6EEF6ACE2BF3D7D1DF81
:1023B0001B6A010E1C6E1A6A1200689612006B6A84
:1023C000696A6A6A686A6E6A706AB8DFE0DF160E68
:1023D000706E68A602D0F1DFFCD79F0E6B6E3D0ECB
:1023E000696E6D982BDF030E1F6EE2EF17F06984A4
:1023F00069986D82E7EF17F0689CECEF17F0D3C097
:1024000020F0120020681200D16B265027102DE01A
:10241000D1513F082AE31D5005E0020A09E0010AF4
:102420000DE011D023C003F0225091DED26F0BD00B
:1024300023C003F02250DBDED26F05D023C003F0AF
:102440002250C4DED26F222AD8B4232A2650D8B410
:1024500027062606D151D12B580FE96E040EEA6EDD
:10246000D8B0EA2AD2C0EFFFD0D72650271004E117
:10247000D151400801E01A6AD1C0D3F0C0DF120088
:10248000D06B236A226A1D6A04011B51010A0001F4
:1024900007E0030A0BE0010A0DE0220A25E03DD027
:1024A000276A120E266E030E1D6E39D0276A430E60
:1024B000266E35D0020E1D6ED06B04011A5100013C
:1024C000D05D09E223C003F0225091DE2226000EE7
:1024D0002322D02BF2D723C003F0225088DE036AD8
:1024E000266E03C027F01BD0036A04011A510001B5
:1024F00061DE036A226E03C023F0223C02D0235225
:102500000AE023C003F0225022DE036A266E03C0D5
:1025100027F005D002D076DF11D074DF0FD0040190
:102520001F5308E1275203E126501E5D03E2276A8C
:102530001EC426F0010E1A6E000166DFC6EF13F00E
:10254000D05304E1040E1F6EF9DECBD0050E1F6ED2
:10255000040ED36F980ED26F010ED16FD1510F08B8
:10256000D8A0BFD0D1C0D9F0B9DED46B036AD151A5
:10257000AEDDFF085BE0040ED46FD890D135036A5E
:10258000CEDD0900F5CF03F0D56F03C0D6F0E06BC8
:10259000D1C0DFF0E26B080EE16F91DE01C0D8F030
:1025A000010E0124016E000E0220036E01C0E9FF3E
:1025B000040E0324EA6ED5C0EFFFE06BD1C0DFF05C
:1025C000E26B080EE16F7BDE01C0D8F0020E012441
:1025D000016E000E0220036E01C0E9FF040E032409
:1025E000EA6ED3C0ECFFED52D2C0EFFFD890D135E8
:1025F000036A95DD0900F5CF03F0D2270350D323FA
:10260000880ED76FD6A101D0D781D6A301D0D783AA
:10261000E06BD1C0DFF0E26B080EE16F50DE01C06D
:10262000E9FF040E0224EA6ED7C0EFFF036AD1511E
:102630003EDDFF0840E0D483E06BD1C0DFF0E26B09
:10264000080EE16F3CDE02C0D9F001C0D8F0040EE4
:10265000D827000ED923020ED825016E000ED921ED
:10266000036E01C0E9FF040E0324EA6ED3C0ECFF41
:10267000ED52D2C0EFFFD890D135036A38DD0900A2
:10268000F5CF03F0D2270350D323E06BD1C0DFF0A6
:10269000E26B080EE16F13DE02C0D9F001C0D8F082
:1026A000040ED827000ED923D8C0E9FF040ED9257F
:1026B000EA6E400EEF6ED451060802E10E0ED46FA2
:1026C000036AD151F4DC010801E0D489036AD151D5
:1026D000700FE96E0F0E0320EA6ED4C0EFFFD12B0E
:1026E0003DD7C0EF13F004011951000A00010DE0BD
:1026F000010A14E0020A1FE0060A29E0030A2EE09C
:102700000E0A2EE0010A32E040D01CC058F4040149
:10271000596B020E0001D36F72DE38D004011A2DFE
:1027200007D0010E1C160001D36B69DE03D0040133
:10273000000168DE2BD004011A2D06D01C82000196
:10274000D36B5DDE03D0040100015CDE1FD0020EFE
:102750001A6E1AC421F0D36B52DE18D091D616D05F
:102760001BC058F4010ED36F4ADE10D004011A5179
:10277000010809E31AC41BF01AC4D0F00001E0D626
:10278000D36B3DDE0401000101D03CDE41EF15F0CA
:102790001BC0D0F004011951000A000105E00A0A2B
:1027A0000BE0010A26E037D00401586B596B020E8A
:1027B0000001D36F24DE30D0D05319E0010ED05D7C
:1027C000036AEFDC016E04011C5DD8A002D0000199
:1027D0000ED0036A1C51280FE96E000E0320EA6E2A
:1027E000EFCF58F4010E0001D36F09DE01D00ADEED
:1027F00013D0D0530EE0036A04011C51280FE96E78
:10280000000E0320EA6E1AC4EFFF0001D36BF7DD60
:1028100001D0F8DD01D0F6DD41EF15F0D191D0BF48
:10282000D181D09FD1A117D0E06BD0C0DFF0E26B97
:10283000080EE16F44DD02C0D3F001C0D2F0040EF7
:10284000D227000ED323D2C0E9FF040ED325EA6EAF
:10285000880EEF6E0DD0E06BD0C0DFF0E26B080E9B
:10286000E16F2DDD01C0E9FF040E0224EA6EEF6A7C
:10287000036AD051700F016E0F0E032201C0E9FFF1
:1028800003C0EAFFEF90B9EF14F0D191D0BFD1812E
:10289000D09FD1A117D0E06BD0C0DFF0E26B080E63
:1028A000E16F0DDD02C0D3F001C0D2F0040ED227DB
:1028B000000ED323D2C0E9FF040ED325EA6E840EA6
:1028C000EF6E0ED0E06BD0C0DFF0E26B080EE16F70
:1028D000F6DC01C0E9FF040E0224EA6E840EEF6EFE
:1028E000BFEF14F0D191D0BFD181D09FD1A117D02B
:1028F000E06BD0C0DFF0E26B080EE16FE0DC02C0FD
:10290000D4F001C0D3F0040ED327000ED423D3C0DB
:10291000E9FF040ED425EA6EEFCFD2F00ED0E06BC3
:10292000D0C0DFF0E26B080EE16FC9DC01C0E9FF47
:10293000040E0224EA6EEFCFD2F0D2AF02D0D2B5AD
:1029400002D0000E01D0010E016EC9EF14F01CC4BC
:10295000DAF094DC015228E004011951010A000167
:1029600005E0020A09E0030A0DE01DD01CC4D0F006
:1029700055D7D36B44DD18D01CC4D0F086D7D36BA9
:102980003EDD12D00401586B596B1CC4D0F000011D
:10299000A9D7015204E0010E0401586F0001020E94
:1029A000D36F2DDD01D02EDD41EF15F0FE0E206E30
:1029B000120004011C2D01D002D01C5348E1195112
:1029C000000A00010BE0010A0DE0210A1CE0010AE7
:1029D0001FE0030A2EE0010A31E037D0010E7F6FBD
:1029E000E5DF34D0040EEA6E580EE96EE26A330E6B
:1029F000E16E080E016EE6CFEEFF012EFCD71EC47D
:102A0000D3F0FDDC23D0020E7F6F7D81CFDF1ED09F
:102A1000040EEA6E580EE96EE26A2A0EE16E070EA7
:102A2000016EE6CFEEFF012EFCD7070ED36FE7DC79
:102A30000DD01AC47EF0D36BE2DC08D01AC432F099
:102A40001BC431F0D36BDBDC01D0DCDC0401000102
:102A500041EF15F01A6A040118517F0B000A0001BA
:102A600007E0010A07E0030A07E0230A07E008D0AD
:102A70003AD607D08DD605D06AD703D09AD701D0E1
:102A8000C1DC7BEF17F0E06BD1C0DFF0E26B080E2A
:102A9000E16F15DC01C0E9FF040E0224EA6EEFCFFE
:102AA000D3F0D251020806E1D3AD02D0D26B02D0EE
:102AB000010ED26FD25103081AE1840ED36FE06B7E
:102AC000D1C0DFF0E26B080EE16F5FEC11F002C0E5
:102AD000D7F001C0D6F0040ED627000ED723D6C0FB
:102AE000E9FF040ED725EA6E840EEF6E07D0D22DD3
:102AF00003D0C80ED36F02D0880ED36FD890D135D3
:102B0000036A8FEC10F00900F5CF03F0D46F03C017
:102B1000D5F0E06BD1C0DFF0E26B080EE16F5FEC47
:102B200011F001C0D6F0010E0124016E000E02204A
:102B3000036E01C0E9FF040E0324EA6ED4C0EFFF68
:102B4000D5A101D0D381D5A301D0D383E06BD1C06F
:102B5000DFF0E26B080EE16F5FEC11F001C0E9FFFE
:102B6000040E0224EA6ED3C0EFFF1200036ADE51A6
:102B7000700FE96E0F0E0320EA6EEF5219E0E06B62
:102B8000DEC0DFF0E26B080EE16F5FEC11F002C017
:102B9000E0F001C0DFF0040EDF27000EE023DFC00D
:102BA000E9FF040EE025EA6EEFCFE1F0E1AF02D0DD
:102BB000000E01D0010E016E1200D9C0DEF0D6DF8A
:102BC0000152D8B48FD0E06BD9C0DFF0E26B080EB1
:102BD000E16F5FEC11F002C0DFF001C0DEF0040E27
:102BE000DE27000EDF23010EDE25016E000EDF2141
:102BF000036E01C0E9FF040E0324EA6EDAC0EFFFA2
:102C0000DC5102081EE1E06BD9C0DFF0E26B080E78
:102C1000E16F5FEC11F002C0DFF001C0DEF0040EE6
:102C2000DE27000EDF23DEC0E9FF040EDF25EA6E9B
:102C3000EFCFDDF0DDAD02D0DC6B02D0010EDC6F3A
:102C400018D0DC51040815E1E06BD9C0DFF0E26B6D
:102C5000080EE16F5FEC11F001C0E9FF040E0224E1
:102C6000EA6EEFCFDDF0DDAD03D0010EDC6F01D0F9
:102C7000DC6BDC2D03D0480EDD6F02D0080EDD6F5B
:102C8000E06BD9C0DFF0E26B080EE16F5FEC11F092
:102C900002C0DFF001C0DEF0040EDE27000EDF23ED
:102CA000DEC0E9FF040EDF25EA6EDDC0EFFFE06B5A
:102CB000D9C0DFF0E26B080EE16F5FEC11F002C0EB
:102CC000DFF001C0DEF0040EDE27000EDF23DEC0E1
:102CD000E9FF040EDF25EA6EEF508009EF6E010E6A
:102CE000016E02D0000E016E12007F51010A03E056
:102CF000030A13E024D0EA6A330EE96E040EE26E92
:102D0000180EE16E080E016EE6CFEEFF012EFCD725
:102D1000D36BFFEC11F07F6B13D0EA6A2A0EE96ED9
:102D2000040EE26E180EE16E070E016EE6CFEEFFA6
:102D3000012EFCD77F6BD36BFFEC11F001D07F6BC2
:102D4000D6EF16F0E06BD1C0DFF0E26B080EE16F5A
:102D50005FEC11F002C0D3F001C0D2F0010E0124EB
:102D6000016E000E0220036E01C0E9FF040E032471
:102D7000EA6E036AEFCF01F003C002F0CCEF16F069
:102D80007A91020ED16FD26F7EDED1EF16F07A818A
:102D90007C6B020ED16FD6D701C07BF07B5301E173
:102DA000EFD7DBEF16F0D05302E19FD704D0D0511C
:102DB000020801E1ECD71200D1C06EFFD15303E04D
:102DC000040E1F6E02D0020E1F6EECEF16F01B6A8F
:102DD0001A6A21C0D1F0F0D75AEF17F0D1C0DEF057
:102DE000C5DE015243E0E06BD1C0DFF0E26B080EBC
:102DF000E16F5FEC11F002C0DAF001C0D9F0040E0F
:102E0000D927000EDA23020ED925016E000EDA2131
:102E1000036E01C0E9FF040E0324EA6EECCFD8F084
:102E2000ED52EFCFD7F0D8C0EAFFD7C0E9FFD3C04B
:102E3000E2FFD2C0E1FFD5C002F0D4C001F00152E0
:102E400002E0022A02D0025206E0E6CFEEFF012E97
:102E5000FCD7022EFAD7D1C0D9F0D5C0DBF0D4C050
:102E6000DAF0D6C0DCF0A9DE015002D0000E016E0F
:102E700047EF17F024520EE0020ED16FD36B3B0EDA
:102E8000D26FD56B24C0D4F0020ED66FA7D70152F3
:102E900001E0246A4DEF17F0EDD75FEF17F0D05344
:102EA0000AE11A2C03D004EC12F004D01A500208E4
:102EB000D8B48DD704D0D051020801E1EDD712006B
:102EC0001E30CE6FCE33CE331F0ECE171E5241E1D1
:102ED000040100513C0B0001CF6F430E04010017A9
:102EE0000001CF5134081EE104010451800B01E0C0
:102EF000046B0001AFD56D98203C05D0D16B030E5B
:102F0000D26FC1DD0ED0D16B020ED26FBCDD20506E
:102F1000FE0807E0D96BDB6B20C0DAF0040EDC6F33
:102F20004CDE16D0CF51040813E1D06B3CDFD16BDF
:102F3000020ED26FA8DD2050FE080AE0203C01D02E
:102F400007D0D96BDB6B20C0DAF0010EDC6F35DE09
:102F50001AD01E5004080EE12068D06BA0DF203C80
:102F600001D007D0D96BDB6B20C0DAF0020EDC6F2A
:102F700024DE09D01EB404D0CEC0D0F014DF03D0BC
:102F8000CEC0D0F08CDFF6EF17F0A19A1F52D8B464
:102F900033D06852D8B430D068A403D069B415EFE8
:102FA00011F06DB229D068AA03D069BA33EF11F0DD
:102FB00068A203D069B23AEF11F068A003D069B0FB
:102FC000DFEF11F068A803D069B8F7EF11F068AC33
:102FD00003D069BCFCEF11F0CD6B68A608D069A6E0
:102FE00006D06CCF1EF0DDEC11F06AD701D004D012
:102FF000CD51CD2B0308F1E230EF10F052483A00EA
:1030000054656D703A00537465703A005365743AB4
:1030100000004F4E20004F4646000C00EA6AA70E03
:10302000E96EEF500EE00F0E016E006A002EFED723
:10303000012EFBD78F0E006E002EFED70000EF2E64
:10304000F2D71200AEB102D08C9801D08C8895983E
:10305000AEB302D08C9A01D08C8A959AAEB502D0CC
:103060008C9C01D08C8C959CAEB702D08C9E01D0EC
:103070008C8E959E00008C849594070E006E002E19
:10308000FED700D08C9495941200AF6B9588000EFB
:1030900083B8010EAF13958A000E83BA010E006E3D
:1030A000D89000360050AF13958C000E83BC010EF3
:1030B000006E00360036FC0E00160050AF13958EE1
:1030C000000E83BE010E006E003600360036F80E8C
:1030D00000160050AF13AFC001F012009588958A1A
:1030E000958C958E8C82959200008C84959400002E
:1030F000CCDF01C0AEF08C94959400008C84959444
:10310000030E006E002EFED700D0BFDF01C0ADF071
:103110008C9495949598959A959C959EAE39006E51
:10312000F00E00160050AD11016E9DEF18F0959451
:10313000959095928C909590D1D701C0ADF001BE3D
:10314000FBD7AB5302E18C9001D08C8095900000AE
:103150008C92959200008C949594AC39AD6F0F0EC3
:10316000AD17ADC0AEF06EDFAC510F0BAD6FAE6FF3
:1031700069DF1200280E9A6F0C0E9B6F010E9C6F78
:10318000060E9D6F8C9495948C9095908C92959250
:103190009598959A959C959E9594959095920F0EDD
:1031A000A76F3CDF010E996F9951030808E3030EE6
:1031B000AE6F48DF050EA76F31DF992BF5D7020EF2
:1031C000AE6F40DF050EA76F29DF996B9951030899
:1031D0000DE3036A99519A0FE96E000E0320EA6E1F
:1031E000EFCFACF0AB6BA3DF992BF0D7AAEF20F0B9
:1031F0009284040E996FFA0EA76F10DF992FFBD7F8
:10320000ACEF20F06D926D6A696A080E6F6E945093
:103210003009946E1F6A196AF2BE198EF29EC7ECCD
:1032200011F019BEF28E16EF19F0ECD742EF19F03B
:10323000196AF2BE198EF29EC7EC11F019BEF28E19
:103240006D926D6A6D8C00D000D000006D9C140EE4
:103250006F6E696A6D86010E1F6E32EF19F06DB6E2
:1032600001D0E6D71F2C0BD06DBA09D0686A696A05
:10327000A08AC00EF212110E696E020E1F6E43EF8D
:1032800019F0D3D7ECD71F500208FCE14FEF19F02B
:103290001B5202E10400FCD750EF19F0F2D7F8D727
:1032A000AEEF20F0A82D01D003D0400EA96F01D0C1
:1032B000A96B010EA75DA927A9518009AA6FAB6B65
:1032C000AC6F35DF1200A651070A07E00B0A0AE0CF
:1032D000060A10E0020A14E018D0010EA76FA86FCA
:1032E000E1DF18D0AB6B010EAC6F21DF020EA76FD0
:1032F00095DE10D0010EA76F020EA86FD3DF0AD0A3
:10330000AB6B100EAC6F13DF05D0010EAB6FA6C018
:10331000ACF00DDF12000900F5520CE0F6CF99F089
:10332000F7CF9AF0F5CFA6F0CEDF99C0F6FF9AC09E
:10333000F7FFF1D71200AD51016AAC5D03E2ACC0FA
:1033400000F00CD0006A080EAE6FAC370036AD51FD
:10335000005CD8B0006E0136AE2FF7D71200200EF9
:103360009AA9300E9B6F99C000F099AF08D0001E4B
:10337000002A00C099F02D0E9B6F9A8F9A81015000
:1033800099C0ACF0640EAD6FD6DF00C099F0300E7E
:1033900001249C6F99C0ACF00A0EAD6FCCDF300EEB
:1033A00000249E6F300E01249D6F9BC000F0300EF4
:1033B0009C5D04E09A839ABF9A8512D09BC09CF0D2
:1033C000200E9B6F300E9D5D04E09A819ABF9A8318
:1033D00007D0D8A49A8104E19CC09DF0200E9C6F78
:1033E0009AB505D09AB306D09AB107D009D09BC040
:1033F000A6F069DF9CC0A6F066DF9DC0A6F063DF83
:103400009EC0A6F060DF0FEF1AF00F0EA76F010E3F
:10341000A86F48DF8FC099F0180E9A6FA0D71200DE
:10342000982D0AD00E0EA76FA86B3CDF120EF66E19
:10343000300EF76E70DF09D00E0EA76FA86B32DF6B
:10344000160EF66E300EF76E66DF1200A76BA86BD5
:1034500029DFFC0EF66E2F0EF76E5DDFA76B010EF7
:10346000A86F20DF000EF66E300EF76E54DF090EE7
:10347000A76FA86B17DF060EF66E300EF76E4BDFE8
:103480000B0EA76F010EA86F0DDF0C0EF66E300E3F
:10349000F76E41DFBADFC4DFBAEF20F0010EA55F9F
:1034A0000CE3EA6AA50EE96EEF5007E0020E006E2B
:1034B000002EFED700D0EF2EF9D71200A76BA86B15
:1034C000A76BA751070814E3D890A837928480A46B
:1034D000FDD7770E006E002EFED700D0928480A418
:1034E00001D0A881928480B4FDD7010EA727E9D727
:1034F000A8C001F0B4EF1AF0A291A36BA46B929450
:10350000898492948994120EA76F88DD929489849D
:10351000670E006E002EFED700D09284A29180B478
:10352000A281A2A103D0010E016E42D0500EA56F60
:10353000B5DF9284A29180B4A281A2B103D0020E21
:10354000016E36D0500EA56FA9DFA36BA3510408FE
:1035500014E3036AA351860F016E000E032201C01B
:10356000A5F003C0A6F0AAD7A6C0EAFFA5C0E9FF50
:1035700001C0EFFF010EA327E9D792948984A36BC2
:10358000A35103080CE3036AA351860FE96E000EF2
:103590000320EA6EEF50A427010EA327F1D78A512A
:1035A000A45D04E0030E016E03D002D0000E016E94
:1035B000BDEF20F08CC0EAFF8BC0E9FFACC0EFFF8D
:1035C000E92AD8B4EA2AEF6A8B2BD8B48C2B1200E4
:1035D0000150AAC0ACF0640EAD6FADDE00C0AAF021
:1035E0000150300E07E1ABA30CD0ABB70AD0ABB99A
:1035F000200E03D0AB97AB99AB81012601C0ACF094
:10360000D9DFAAC0ACF00A0EAD6F95DE00C0AAF0FB
:103610000150300E06E1ABB708D0ABA106D0ABB974
:10362000200E012601C0ACF0C5DF300EAA27AAC0CB
:10363000ACF0C0DF1200B951D8B471D0006EBD51EA
:10364000D8B46DD0002604E3810E002668E204D0D1
:103650007F0E005E64E363E0BAC0C1F0BE51C11BDF
:10366000BA8FBE8FBC51C003F4CFC3F0BB51BF03B0
:10367000F4CF03F0F3CFC2F0C003F350C327F450EC
:10368000C223000E0322BC51BF03F350C327F450E2
:10369000C223000E026A03220222BA51C003F35071
:1036A000C227F4500322000E0222BA51BF03F35086
:1036B0000326F4500222000E016A0122BC51BE030F
:1036C000F350C227F4500322000E02220122BB5104
:1036D000BE03F3500326F4500222000E0122BA5119
:1036E000BE03F3500226F4500122002A01BE05D089
:1036F000C2370336023601360006000EC2AF0AD0CA
:10370000032A02220122015005E1025003E1035085
:1037100001E1002AC1BF018EC1AF019E04D0006A41
:10372000016A026A036A12008E0E006EBEC001F0CA
:10373000BDC002F0036A015209E102C001F0026A51
:10374000080E005E015202E1006A08D0D89001BE66
:1037500004D0023601360006F9D7019E1200BD5191
:10376000D8B4A5D0C96FC151D8B4A1D0C95F05E301
:103770007F0EC927D8B09BD006D0810EC95FD8A0D4
:1037800096D0D8B494D0C9C000F0016A026A036A26
:10379000C86BBEC0C7F0C78FBFC0C6F0C0C0C5F001
:1037A000190EC96FC451C55F0DE2010EC65F0AE272
:1037B000C75F08E2C85F06E2C82BC72BC62BC451FF
:1037C000C52728D0C351C65F12E2010EC75F0FE2C2
:1037D000C85F0DE2C82BC72BC351C627C451C527EC
:1037E00019E3C62B17E1C72B15E1C82B13D0C25123
:1037F0008009C75F0EE2010EC85F0BE2C82BC25101
:103800008009C727C351C627E9E3C72BE7E1C82BC7
:10381000E5D70380C92F01D00BD0D890C537C63764
:10382000C737C837D890033602360136CA37BAD7F9
:10383000CAA106D0D890013202320332CA3302D074
:10384000000635E0CABF1ED0D890C537C637C73787
:10385000C837C451C55F07E2010EC65F04E2C75F07
:1038600002E2C85F1AE3C351C65F05E2010EC75FFB
:1038700002E2C85F12E3C2518009C75F03E2010E92
:10388000C85F0BE3032A09E1022A07E1012A05E1E7
:10389000002A0DE0013202320332BEC0C9F0C2512B
:1038A000C91BC9AF02D0018E06D0019E04D0006AA8
:1038B000016A026A036A0FEF1EF0800ED8B2C21BC3
:1038C000C76BC86BBEC0C6F0C251C61BBD51D8B4D1
:1038D000DCD0C56F006EC151D8B4E0D0C55FD8B49C
:1038E00081D03DE3C2C0CBF0CB8FC3C0CAF0C4C00F
:1038F000C9F0C86BD890CB33CA33C933C833C52F8E
:10390000F8D7C6AF03D0C781DDD0C791C591C789AD
:10391000EA6AC00EE96EE9D0C799C6BF0AD0C5A150
:1039200013D0CB33CA33C933C833002AD8B4C5D077
:103930000BD0CBBF0CD0D890C837C937CA37CB37DC
:103940000006D8B4BAD0F5D7C78D6BD0C79DBEC01E
:10395000C6F0BEAF02D0CB8FA9D0CB9FA7D0C1C03D
:10396000C5F0C1C000F0BD51C55FBEC0CBF0CB8F6C
:10397000BFC0CAF0C0C0C9F0C86BD890CB33CA333F
:10398000C933C833C52FF8D7C6AF03D0C7839AD081
:10399000C793C591C78BEA6AC40EE96EA6D0C79BD0
:1039A000C6BF0AD0C5A113D0CB33CA33C933C8337D
:1039B000002AD8B482D00BD0CBBF0CD0D890C83757
:1039C000C937CA37CB370006D8B477D0F5D7C78FF9
:1039D00028D0C79FC2C0C6F0C2AF02D0CB8F66D07E
:1039E000CB9F64D0C2C0CBF0CB8FC3C0CAF0C4C0E1
:1039F000C9F0C6AF04D0CB9FC78564D0C795C86B4C
:103A0000C591EA6AC00EE96E70D0C6BF1CD0BEC0B8
:103A1000C6F0C5A106D0CB33CA33C933C833002A98
:103A20004CE0C8AF0BD0C92B09E1CA2B07E1CB2B67
:103A300005E1CB33CA33C933002A3FE0C7BD86D77F
:103A4000C7BFC7D71CD0800ECB1BCBAF04D03AD09A
:103A5000C2C0C6F00AD0BEC0C6F0CB5306E1CA53FE
:103A600004E1C95302E1006A21D0CBBF08D0D8904D
:103A7000C837C937CA37CB37002EF7D71ED0C6AFE5
:103A800002D0CB8F13D0CB9F11D0C1C000F0C2C0E9
:103A9000CBF0C3C0CAF0C4C0C9F008D0BDC000F0AC
:103AA000BEC0CBF0BFC0CAF0C0C0C9F0CBC001F0EF
:103AB000CAC002F0C9C003F034D0006A016A026AC9
:103AC000036A2FD0C86BC91FCA1FCB1FC81FC82BC2
:103AD00005E1C92B03E1CA2B01E1CB2BC7B115D7F7
:103AE000C7B356D7C7B58AD7B3D7EF50C92705E3B1
:103AF000CA2B03E1CB2BD8B4C581ED52EF50CA27B6
:103B000003E3CB2BD8B4C581ED52EF50EFBE01D00B
:103B1000800ACB27D8B0C581C7B9FED6C7BB3FD76F
:103B200074D71200B16BB06BAF6B7F0EAE6FB56B1D
:103B3000B46BB36BB26BB681B693B695B86BAA5142
:103B4000AB1105E1006A016A026A036A01D1B8514A
:103B5000B82BAA25E96E000EAB21EA6EEFCFB7F0C5
:103B6000B753D8B4BAD0B6A10FD0B75120080CE0E3
:103B7000B691B7512B0803E1B693A5D005D0B75144
:103B80002D0802E1B6839FD0B6B107D0B7512E08F9
:103B900004E1B6B502D0B68596D0B6B191D0B75192
:103BA0002F08D8B08DD0B7513908D8A089D0300EA1
:103BB000B75FB6A54FD0B1C0BCF0B0C0BBF0AFC0CE
:103BC000BAF0AEC0B9F0C06BBF6B200EBE6F820EF4
:103BD000BD6F31DD03C0B1F002C0B0F001C0AFF085
:103BE00000C0AEF0BE6BB7C0BDF09EDD03C0BCF040
:103BF00002C0BBF001C0BAF000C0B9F003C0C0F011
:103C000002C0BFF001C0BEF000C0BDF0B1C0C4F042
:103C1000B0C0C3F0AFC0C2F0AEC0C1F0A0D5D89262
:103C2000B5C0C0F0B4C0BFF0B3C0BEF0B2C0BDF00C
:103C300003C0C4F002C0C3F001C0C2F000C0C1F0B4
:103C40003CDE03C0B5F002C0B4F001C0B3F000C068
:103C5000B2F035D0BC6BBB6B200EBA6F820EB96F61
:103C6000B5C0C0F0B4C0BFF0B3C0BEF0B2C0BDF0CC
:103C7000E2DC03C0BCF002C0BBF001C0BAF000C07F
:103C8000B9F0BE6BB7C0BDF04FDDD892BCC0C0F07C
:103C9000BBC0BFF0BAC0BEF0B9C0BDF003C0C4F035
:103CA00002C0C3F001C0C2F000C0C1F006DE03C014
:103CB000B5F002C0B4F001C0B3F000C0B2F003D060
:103CC000B6B101D00AD0B851B82BAA25E96E000EC2
:103CD000AB21EA6EEFCFB7F043D7B6A317D0BC6BDA
:103CE000BB6B800EBA6F7F0EB96FB5C0C0F0B4C0A9
:103CF000BFF0B3C0BEF0B2C0BDF09DDC03C0B5F0F4
:103D000002C0B4F001C0B3F000C0B2F0AC51AD11CC
:103D100017E0B8530CE0B807ACC0E9FFADC0EAFF4C
:103D2000B851AA25EF6E000EAB21EC6E09D0ACC0E5
:103D3000E9FFADC0EAFFABC0ECFFED52AAC0EFFF58
:103D4000B2C000F0B3C001F0B4C002F0B5C003F0DF
:103D5000C0EF1EF08C6BA40E8B6FA2C0AAF01B0EDE
:103D6000AB6F36DC2E0EAC6F25DCA3C0AAF0080EBC
:103D7000AB6F2EDCAB6BA40EAA6FAD6BAC6BD2D667
:103D80001200A651B608A66F036AA7C0AAF0A78FB3
:103D9000D890A733A833A93303320232013200325C
:103DA000A62FF6D7AAAF0BD0001E011E021E031EBF
:103DB000002AD8B4012AD8B4022AD8B4032A50EF72
:103DC0001FF0D8B203D0EA6AAE0EE96E006A016A4B
:103DD000026A036AAE6BAF6BB06BB16BAD51AC11E5
:103DE000AB11AA112CE0200EB26FD890A637A737DE
:103DF000A837A937AE37AF37B037B137AD51B15D5E
:103E000008E1AC51B05D05E1AB51AF5D02E1AA51F3
:103E1000AE5D0FE3AA51AE5FAB51D8A0AB3DAF5F33
:103E2000AC51D8A0AC3DB05FAD51D8A0AD3DB15FB5
:103E3000D8800036013602360336B22FD6D7AEC050
:103E4000EFFFAFC0ECFFB0C0ECFFB1C0ECFF120061
:103E5000E9509E6F9D51A06F1AE09CC0BCF09BC0C2
:103E6000BBF09AC0BAF099C0B9F0C06BBF6B200E1E
:103E7000BE6F820EBD6F1BEC1BF003C09CF002C036
:103E80009BF001C09AF000C099F0A02FE6D79CC02B
:103E9000A9F09BC0A8F09AC0A7F099C0A6F071D76E
:103EA00003C09CF002C09BF001C09AF000C099F0E2
:103EB0009CAF0DD09E079E8B991F9A1F9B1F9C1F26
:103EC000992BD8B49A2BD8B49B2BD8B49C2B3B0EEF
:103ED000A56F9A0EA46FCA0EA36FA26B0A0EA06FF5
:103EE0009D51D8B49E2BD882EA6A990EE96E9CC087
:103EF000A9F09BC0A8F09AC0A7F099C0A6F0A5C0F1
:103F0000ADF0A4C0ACF0A3C0ABF0A2C0AAF059DFE2
:103F1000015000520FE19D29A05D0CE09E510CE084
:103F20000F0BA05D01E03BE29EBF39D09EBD04D0E7
:103F3000200E30D0200E9E179EAB0DD09E9B9D5123
:103F4000D8A49E0700509E6F2D0EA66F63EC19F04B
:103F50009E51006E9E6B9D51A05D0BE100509E6FC7
:103F60002E0EA66F63EC19F09E51006E200E9E1768
:103F7000000E300E9EAB0ED09E9B9D51D8A49E0786
:103F800000509E6F2D0EA66F63EC19F09E51006ECF
:103F90009E6B300E002600C0A6F063EC19F0D8929C
:103FA000A5C0A9F0A4C0A8F0A3C0A7F0A2C0A6F025
:103FB000AD6BAC6BAB6B0A0EAA6F03DF03C0A5F051
:103FC00002C0A4F001C0A3F000C0A2F0A02F8BD7C4
:103FD0001200060EA76F010EA86F52EC19F0890EA1
:103FE000E96E93C09CF092C09BF091C09AF090C093
:103FF00099F0010E9D6F2CDF040EA76FA86B52EC99
:1040000019F0890EE96E97C09CF096C09BF095C0A0
:104010009AF094C099F0010E9D6F1ADFE8EF20F03E
:1040200092808D6B80B08D2B92828E6B80B28E2BA6
:10403000320EA76F0EEC18F08D2D03D08F2B05ECF0
:104040001AF08E2D03D08F0705EC1AF0E9EF20F05F
:104050009AC0A1F09E51A11BA1AF05D0D894D890D1
:104060009ABFD8802FD09AC0A1F09DC0A2F09951DC
:10407000A25F06E0A1AF26D0D850010AD86E22D0A8
:104080009EC0A2F09A51A25F06E0A1AF1BD0D8500B
:10409000010AD86E17D09FC0A2F09B51A25F06E024
:1040A000A1AF10D0D850010AD86E0CD0A0C0A2F099
:1040B0009C51A25F06E0A1AF05D0D850010AD86E8E
:1040C00001D0D8907AEF20F0BE6B8FC0BDF094EC99
:1040D0001BF003C09CF002C09BF001C09AF000C02E
:1040E00099F093C0A0F092C09FF091C09EF090C054
:1040F0009DF0AED701E207E1010E986F93948A8498
:1041000010EC1AF005D0986B93948A9410EC1AF086
:10411000EAEF20F0F86AD09E078E8C6B8B6B8D6B6C
:104120008E6B1E0E8F6F936B926B700E916F830E62
:10413000906F976B966B700E956F830E946F986B64
:10414000C150C00B0F09C16E070EB46E806B816B3E
:10415000BAEF18F0F8EF18F04EEF19F0C80EA76F8D
:104160000EEC18F01A0EF66E300EF76E8BEC19F09E
:1041700026EF1AF0996B7CEF1AF001C099F0995173
:10418000010A05E0030A03E0010A02E002D01FD0A1
:104190001ED088C0A2F089C0A3F0DCDD03C093F07C
:1041A00002C092F001C091F000C090F086C0A2F071
:1041B00087C0A3F0CFDD03C097F002C096F001C026
:1041C00095F000C094F0C80EA76F0EEC18F001D760
:1041D00027D77AD7190EA76F0EEC18F0CBD70300AC
:020000040030CA
:0E00000024CE3E1E0085A1000FC00FE00F4071
:00000001FF
;PIC18F4550
;CRC=FD0C  CREATED="20-Jul-22 20:23"
