:0420000045EF19F09F
:08200800046ED8CF05F0E0CF13
:1020100006F00001E9CF0CF0EACF07F0E1CF08F0BD
:10202000E2CF09F0D9CF0AF0DACF0BF0F3CF12F0FC
:10203000F4CF13F0FACF14F0F5CF15F0F6CF16F079
:10204000F7CF17F000C00EF001C00FF002C010F083
:1020500003C011F0A0AA30EF10F0A1BAD1EF17F031
:102060000EC000F00FC001F010C002F011C003F06C
:102070000CC0E9FF07C0EAFF078E08C0E1FF09C0F6
:10208000E2FF0AC0D9FF0BC0DAFF12C0F3FF13C092
:10209000F4FF14C0FAFF15C0F5FF16C0F6FF17C015
:1020A000F7FF045006C0E0FF05C0D8FF1000F76A34
:1020B000BE0FF66E200EF7220900F5501200000345
:1020C00002FFFFFFFFFFFFFFFFFFFFFFFFFFF76ABA
:1020D000DE0FF66E200EF7220900F550120000FF09
:1020E00002FFFFFFFFFFFFFFFFFFFFFFFFFFF76A9A
:1020F000FE0FF66E200EF7220900F5501200400088
:102100000B00400000000000000000000000000084
:102110000000000000000000000000000000F76A5E
:102120002E0FF66E210EF7220900F5501200400026
:10213000000040000000000000000000000000005F
:102140000000000000000000000000000000F76A2E
:102150005E0FF66E210EF7220900F55012000902FB
:102160004300020100803209040000010202010064
:1021700005240010010424020205240600010524A0
:10218000010001070581030B00FA09040100020A9E
:10219000000000070502024000010705820240001E
:1021A0000100F76AB20FF66E210EF7220900F55012
:1021B00012000200F76AC40FF66E210EF722090022
:1021C000F550120012171B20FFFFFFFFF76ADC0F0C
:1021D000F66E210EF7220900F550120012011001CF
:1021E00002000040D8040200000101020001F76A69
:1021F000FE0FF66E210EF7220900F55012000403BF
:102200000904080343004300530020034300430034
:1022100053002000550053004200200074006F005E
:1022200020005500410052005400F76A3A0FF66E44
:10223000220EF7220900F55012000D0A4F4B0D0A2D
:1022400000006D92699468A402D06894FCD76898E5
:10225000DDEF17F0400E0401016F040E0001A46FC2
:10226000180EA4C003F4E8CF02F4880E0401006F36
:10227000046B040E076F580E066F0001120070A069
:1022800002D0E8DF7090689AE4EF17F06A6A68920B
:10229000E9EF17F0B091AFBFB081AF9FAF51100819
:1022A00003E2000E016E16D0B0A10BD0036AAF514D
:1022B000FEDEFF0802E1000E01D0010E016E0AD021
:1022C00009D0036AAF5103DFFF0802E1000E01D01D
:1022D000010E016E1200B451B603F3CF01F0F4CF3A
:1022E00000F0B703F3500026B551B603F3500020B9
:1022F000026E1200036AAE51700FE96E0F0E0320DA
:10230000EA6EEF6AAEC0AFF0C5DF015222E0B56BF6
:10231000AEC0B4F0B76B080EB66FDDDF01C0E9FFE9
:10232000040E0224EA6EEF6AB56BAEC0B4F0B76B70
:10233000080EB66FD0DF02C0B0F001C0AFF0040EDF
:10234000AF27000EB023AFC0E9FF040EB025EA6E40
:10235000EF6A1200010EAD6FAD510F0805E3ADC07D
:10236000AEF0C8DFAD2BF8D71200A76BA66B250E19
:10237000A56F800EA46FA4C02AF0A5C02BF02C6A14
:102380002D6AA46BA4C02EF0A46BA4C02FF0080E7D
:10239000A46FA4C030F07E6B7D91326A316A246AEA
:1023A0007A917F6B1200276A266AA36BA3510108FA
:1023B0000AE3036AA351280FE96E000E0320EA6EB8
:1023C000EF6AA32BF3D7D1DF1B6A010E1C6E1A6ACA
:1023D0001200689612006B6A696A6A6A686A6E6AB5
:1023E000706AB8DFE0DF160E706E68A602D0F1DF0B
:1023F000FCD79F0E6B6E3D0E696E6D982BDF030E42
:102400001F6EEEEF17F0698469986D82F3EF17F095
:10241000689CF8EF17F0A8C020F0120020681200A6
:10242000A66B265027102DE0A6513F082AE31D5029
:1024300005E0020A09E0010A0DE011D023C003F013
:10244000225085DEA76F0BD023C003F02250CFDED1
:10245000A76F05D023C003F02250B8DEA76F222A51
:10246000D8B4232A2650D8B427062606A651A62B70
:10247000580FE96E040EEA6ED8B0EA2AA7C0EFFF43
:10248000D0D72650271004E1A651400801E01A6A6F
:10249000A6C0A8F0C0DF1200A56B236A226A1D6ADD
:1024A00004011B51010A000107E0030A0BE0010AC5
:1024B0000DE0220A25E03DD0276A120E266E030E9B
:1024C0001D6E39D0276A430E266E35D0020E1D6E62
:1024D000A56B04011A510001A55D09E223C003F0B8
:1024E000225085DE2226000E2322A52BF2D723C000
:1024F00003F022507CDE036A266E03C027F01BD057
:10250000036A04011A51000155DE036A226E03C0FA
:1025100023F0223C02D023520AE023C003F02250D1
:1025200016DE036A266E03C027F005D002D076DFE0
:1025300011D074DF0FD004011F5308E1275203E1CB
:1025400026501E5D03E2276A1EC426F0010E1A6E95
:10255000000166DFD2EF13F0A55304E1040E1F6EF5
:10256000F9DECBD0050E1F6E040EA86F980EA76F74
:10257000010EA66FA6510F08D8A0BFD0A6C0AEF01E
:10258000B9DEA96B036AA651A2DDFF085BE0040E69
:10259000A96FD890A635036AC2DD0900F5CF03F014
:1025A000AA6F03C0ABF0B56BA6C0B4F0B76B080E52
:1025B000B66F91DE01C0ADF0010E0124016E000E78
:1025C0000220036E01C0E9FF040E0324EA6EAAC0D4
:1025D000EFFFB56BA6C0B4F0B76B080EB66F7BDE2D
:1025E00001C0ADF0020E0124016E000E0220036E48
:1025F00001C0E9FF040E0324EA6EA8C0ECFFED520F
:10260000A7C0EFFFD890A635036A89DD0900F5CF92
:1026100003F0A7270350A823880EAC6FABA101D00D
:10262000AC81ABA301D0AC83B56BA6C0B4F0B76BE3
:10263000080EB66F50DE01C0E9FF040E0224EA6EF8
:10264000ACC0EFFF036AA65132DDFF0840E0A9836A
:10265000B56BA6C0B4F0B76B080EB66F3CDE02C017
:10266000AEF001C0ADF0040EAD27000EAE23020E99
:10267000AD25016E000EAE21036E01C0E9FF040E10
:102680000324EA6EA8C0ECFFED52A7C0EFFFD8907C
:10269000A635036A2CDD0900F5CF03F0A727035008
:1026A000A823B56BA6C0B4F0B76B080EB66F13DEE7
:1026B00002C0AEF001C0ADF0040EAD27000EAE2397
:1026C000ADC0E9FF040EAE25EA6E400EEF6EA951D3
:1026D000060802E10E0EA96F036AA651E8DC0108A4
:1026E00001E0A989036AA651700FE96E0F0E03205D
:1026F000EA6EA9C0EFFFA62B3DD7CCEF13F0040183
:102700001951000A00010DE0010A14E0020A1FE05D
:10271000060A29E0030A2EE00E0A2EE0010A32E042
:1027200040D01CC058F40401596B020E0001A86F80
:1027300072DE38D004011A2D07D0010E1C160001DC
:10274000A86B69DE03D00401000168DE2BD0040110
:102750001A2D06D01C820001A86B5DDE03D0040197
:1027600000015CDE1FD0020E1A6E1AC421F0A86BA5
:1027700052DE18D091D616D01BC058F4010EA86FA7
:102780004ADE10D004011A51010809E31AC41BF0F3
:102790001AC4A5F00001E0D6A86B3DDE04010001DB
:1027A00001D03CDE4DEF15F01BC0A5F0040119511E
:1027B000000A000105E00A0A0BE0010A26E037D012
:1027C0000401586B596B020E0001A86F24DE30D053
:1027D000A55319E0010EA55D036AE3DC016E040157
:1027E0001C5DD8A002D000010ED0036A1C51280F36
:1027F000E96E000E0320EA6EEFCF58F4010E0001DF
:10280000A86F09DE01D00ADE13D0A5530EE0036ADB
:1028100004011C51280FE96E000E0320EA6E1AC451
:10282000EFFF0001A86BF7DD01D0F8DD01D0F6DD88
:102830004DEF15F0A691A5BFA681A59FA6A117D023
:10284000B56BA5C0B4F0B76B080EB66F44DD02C01F
:10285000A8F001C0A7F0040EA727000EA823A7C068
:10286000E9FF040EA825EA6E880EEF6E0DD0B56B59
:10287000A5C0B4F0B76B080EB66F2DDD01C0E9FF3F
:10288000040E0224EA6EEF6A036AA551700F016E0E
:102890000F0E032201C0E9FF03C0EAFFEF90C5EF6E
:1028A00014F0A691A5BFA681A59FA6A117D0B56BD0
:1028B000A5C0B4F0B76B080EB66F0DDD02C0A8F06E
:1028C00001C0A7F0040EA727000EA823A7C0E9FFA8
:1028D000040EA825EA6E840EEF6E0ED0B56BA5C06F
:1028E000B4F0B76B080EB66FF6DC01C0E9FF040E5A
:1028F0000224EA6E840EEF6ECBEF14F0A691A5BF12
:10290000A681A59FA6A117D0B56BA5C0B4F0B76BE3
:10291000080EB66FE0DC02C0A9F001C0A8F0040EFA
:10292000A827000EA923A8C0E9FF040EA925EA6E76
:10293000EFCFA7F00ED0B56BA5C0B4F0B76B080E03
:10294000B66FC9DC01C0E9FF040E0224EA6EEFCFC6
:10295000A7F0A7AF02D0A7B502D0000E01D0010E9C
:10296000016ED5EF14F01CC4AFF094DC015228E0E6
:1029700004011951010A000105E0020A09E0030AF5
:102980000DE01DD01CC4A5F055D7A86B44DD18D0B0
:102990001CC4A5F086D7A86B3EDD12D00401586B8D
:1029A000596B1CC4A5F00001A9D7015204E0010E27
:1029B0000401586F0001020EA86F2DDD01D02EDD3D
:1029C0004DEF15F0FE0E206E120004011C2D01D0FB
:1029D00002D01C5348E11951000A00010BE0010A22
:1029E0000DE0210A1CE0010A1FE0030A2EE0010AA3
:1029F00031E037D0010E7F6FE5DF34D0040EEA6E90
:102A0000580EE96EE26A330EE16E080E016EE6CFF3
:102A1000EEFF012EFCD71EC4A8F0FDDC23D0020E71
:102A20007F6F7D81CFDF1ED0040EEA6E580EE96EF7
:102A3000E26A2A0EE16E070E016EE6CFEEFF012E6E
:102A4000FCD7070EA86FE7DC0DD01AC47EF0A86B88
:102A5000E2DC08D01AC432F01BC431F0A86BDBDC16
:102A600001D0DCDC040100014DEF15F01A6A04010D
:102A700018517F0B000A000107E0010A07E0030A72
:102A800007E0230A07E008D03AD607D08DD605D054
:102A90006AD703D09AD701D0C1DC87EF17F0B56BA6
:102AA000A6C0B4F0B76B080EB66F15DC01C0E9FF25
:102AB000040E0224EA6EEFCFA8F0A751020806E147
:102AC000A8AD02D0A76B02D0010EA76FA7510308D3
:102AD0001AE1840EA86FB56BA6C0B4F0B76B080EF0
:102AE000B66F6BEC11F002C0ACF001C0ABF0040E9D
:102AF000AB27000EAC23ABC0E9FF040EAC25EA6E99
:102B0000840EEF6E07D0A72D03D0C80EA86F02D099
:102B1000880EA86FD890A635036A8FEC10F00900D4
:102B2000F5CF03F0A96F03C0AAF0B56BA6C0B4F04F
:102B3000B76B080EB66F6BEC11F001C0ABF0010E75
:102B40000124016E000E0220036E01C0E9FF040E95
:102B50000324EA6EA9C0EFFFAAA101D0A881AAA30D
:102B600001D0A883B56BA6C0B4F0B76B080EB66FE2
:102B70006BEC11F001C0E9FF040E0224EA6EA8C05C
:102B8000EFFF1200036AB351700FE96E0F0E0320BE
:102B9000EA6EEF5219E0B56BB3C0B4F0B76B080E34
:102BA000B66F6BEC11F002C0B5F001C0B4F0040ECA
:102BB000B427000EB523B4C0E9FF040EB525EA6EB4
:102BC000EFCFB6F0B6AF02D0000E01D0010E016E0D
:102BD0001200AEC0B3F0D6DF0152D8B48FD0B56BBF
:102BE000AEC0B4F0B76B080EB66F6BEC11F002C05C
:102BF000B4F001C0B3F0040EB327000EB423010EED
:102C0000B325016E000EB421036E01C0E9FF040E6E
:102C10000324EA6EAFC0EFFFB15102081EE1B56BAD
:102C2000AEC0B4F0B76B080EB66F6BEC11F002C01B
:102C3000B4F001C0B3F0040EB327000EB423B3C048
:102C4000E9FF040EB425EA6EEFCFB2F0B2AD02D0C8
:102C5000B16B02D0010EB16F18D0B151040815E16B
:102C6000B56BAEC0B4F0B76B080EB66F6BEC11F07D
:102C700001C0E9FF040E0224EA6EEFCFB2F0B2AD5C
:102C800003D0010EB16F01D0B16BB12D03D0480E4E
:102C9000B26F02D0080EB26FB56BAEC0B4F0B76BB6
:102CA000080EB66F6BEC11F002C0B4F001C0B3F0C7
:102CB000040EB327000EB423B3C0E9FF040EB425FD
:102CC000EA6EB2C0EFFFB56BAEC0B4F0B76B080EE2
:102CD000B66F6BEC11F002C0B4F001C0B3F0040E9B
:102CE000B327000EB423B3C0E9FF040EB425EA6E87
:102CF000EF508009EF6E010E016E02D0000E016EE2
:102D000012007F51010A03E0030A13E024D0EA6AAB
:102D1000330EE96E040EE26E180EE16E080E016EBF
:102D2000E6CFEEFF012EFCD7A86B0BEC12F07F6B09
:102D300013D0EA6A2A0EE96E040EE26E180EE16EF6
:102D4000070E016EE6CFEEFF012EFCD77F6BA86B5E
:102D50000BEC12F001D07F6BE2EF16F0B56BA6C062
:102D6000B4F0B76B080EB66F6BEC11F002C0A8F0B0
:102D700001C0A7F0010E0124016E000E0220036EB7
:102D800001C0E9FF040E0324EA6E036AEFCF01F0ED
:102D900003C002F0D8EF16F07A91020EA66FA76F6B
:102DA0007EDEDDEF16F07A817C6B020EA66FD6D741
:102DB00001C07BF07B5301E1EFD7E7EF16F0A5539D
:102DC00002E19FD704D0A551020801E1ECD712001F
:102DD000A6C06EFFA65303E0040E1F6E02D0020EC3
:102DE0001F6EF8EF16F01B6A1A6A21C0A6F0F0D722
:102DF00066EF17F0A6C0B3F0C5DE015243E0B56B35
:102E0000A6C0B4F0B76B080EB66F6BEC11F002C041
:102E1000AFF001C0AEF0040EAE27000EAF23020EDD
:102E2000AE25016E000EAF21036E01C0E9FF040E56
:102E30000324EA6EECCFADF0ED52EFCFACF0ADC0B5
:102E4000EAFFACC0E9FFA8C0E2FFA7C0E1FFAAC04B
:102E500002F0A9C001F0015202E0022A02D002529F
:102E600006E0E6CFEEFF012EFCD7022EFAD7A6C071
:102E7000AEF0AAC0B0F0A9C0AFF0ABC0B1F0A9DE0F
:102E8000015002D0000E016E53EF17F024520EE0F5
:102E9000020EA66FA86B3B0EA76FAA6B24C0A9F009
:102EA000020EAB6FA7D7015201E0246A59EF17F069
:102EB000EDD76BEF17F0A5530AE11A2C03D010ECF5
:102EC00012F004D01A500208D8B48DD704D0A551FE
:102ED000020801E1EDD712001E30A36FA333A33324
:102EE0001F0EA3171E5241E1040100513C0B0001CB
:102EF000A46F430E040100170001A45134081EE121
:102F000004010451800B01E0046B0001AFD56D9802
:102F1000203C05D0A66B030EA76FC1DD0ED0A66BBB
:102F2000020EA76FBCDD2050FE0807E0AE6BB06B51
:102F300020C0AFF0040EB16F4CDE16D0A4510408CF
:102F400013E1A56B3CDFA66B020EA76FA8DD205036
:102F5000FE080AE0203C01D007D0AE6BB06B20C069
:102F6000AFF0010EB16F35DE1AD01E5004080EE12D
:102F70002068A56BA0DF203C01D007D0AE6BB06B02
:102F800020C0AFF0020EB16F24DE09D01EB404D011
:102F9000A3C0A5F014DF03D0A3C0A5F08CDF02EF1F
:102FA00018F0A19A1F52D8B433D06852D8B430D098
:102FB00068A403D069B421EF11F06DB229D068AADA
:102FC00003D069BA3FEF11F068A203D069B246EFAF
:102FD00011F068A003D069B0EBEF11F068A803D03E
:102FE00069B803EF12F068AC03D069BC08EF12F0C7
:102FF000A26B68A608D069A606D06CCF1EF0E9ECDB
:1030000011F06AD701D004D0A251A22B0308F1E23B
:1030100030EF10F0415445300D0A000041540D0AC4
:1030200000006D926D6A696A080E6F6E94503009E7
:10303000946E1F6A196AF2BE198EF29ED3EC11F0DB
:1030400019BEF28E25EF18F0ECD751EF18F0196A7F
:10305000F2BE198EF29ED3EC11F019BEF28E6D9273
:103060006D6A6D8C00D000D000006D9C140E6F6EE8
:10307000696A6D86010E1F6E41EF18F06DB601D0C2
:10308000E6D71F2C0BD06DBA09D0686A696AA08A8E
:10309000C00EF212110E696E020E1F6E52EF18F082
:1030A000D3D7ECD71F500208FCE15EEF18F01B529B
:1030B00002E10400FCD75FEF18F0F2D7F8D75BEF1E
:1030C00019F0EA6A9B0EE96EEF500EE00F0E016EEA
:1030D000006A002EFED7012EFBD78F0E006E002E49
:1030E000FED70000EF2EF2D712000900F5520DE0D6
:1030F000F6CF8FF0F7CF90F0F5509EA8FED7AD6ECB
:103100008FC0F6FF90C0F7FFF0D71200140EF66ED6
:10311000300EF76EEADF040E8F6FFA0E9B6FD1DF71
:103120008F2FFBD75FEF19F01C0EF66E300EF76E87
:10313000DCDF080E8F6FFA0E9B6FC3DF8F2FFBD77C
:1031400060EF19F09EAAFED7ABCF80F0AECF01F0B2
:1031500080A302D0AB98AB88C6EF18F07D939C6B30
:103160009B6B9EBA10D09B2BD8B49C2B9C51C30850
:103170000AE303E19B514F0806E3270E006E002E81
:10318000FED700D0EED79EAA04D0DCD7015004D0E1
:1031900003D07D83000E016E12009DC0E9FF9EC02A
:1031A000EAFFEFCFA1F0A0C003F09FC0E9FFA0C0ED
:1031B000EAFFEF50A15D15E19EC003F09DC0E9FF5D
:1031C00003C0EAFFEF5203E1000E016E1FD09EC064
:1031D00003F09D519D2BD8B49E2B9F2BD8B4A02BD0
:1031E000DCD79EC003F09DC0E9FF9EC0EAFFEFCF91
:1031F000A1F0A0C003F09FC0E9FFA0C0EAFFEF501C
:10320000A15D02E2FF0E01D0010E016E39EF19F04F
:1032100095908C80C80E9B6F54DF95908C903CEFFE
:1032200019F09107926B9ADF01C093F09251922BA3
:103230008F25E96E000E9021EA6E93C0EFFF915149
:10324000925DF1E1EA6A940EE96E070E016EF76A8B
:10325000000E15EC11F00A000900F5CFEEFF012E6B
:10326000FBD790C09EF08FC09DF0A06B940E9F6F17
:1032700094D7015201E0CCD792518F25E96E000E10
:103280009021EA6EEF6A69EF19F0F86AD09E078E16
:10329000806BB896190EAF6EA60EAC6E900EAB6E2C
:1032A000846B836BC150C00B0F09C16E070EB46EE7
:1032B000816B826B02D7C80E9B6F03DF27D734D791
:1032C0004DDF015206E0906B850E8F6F050E916FFA
:0632D000A8D7F5D70300AA
:020000040030CA
:0E00000024CE3E1E0085A1000FC00FE00F4071
:00000001FF
;PIC18F4550
;CRC=D6AC  CREATED="19-Jul-22 18:10"
